03300000        2012345678898989300400130059474     006084443           TESTE DE EMPRESA ABCEFFDDDDFEFBANCO SANTANDER (BRASIL) S/A            202052014      000197040                                                                          
03313661T01  040 2015862483000100006084443           300400130059474     JOAO PAULO GONCALVES DA CRUZ M                                                                                0000019702052014                                         
0331366300001T 06300400130059474        00000000052232140029         2504201400000000000799003333421                         002012345679989896EMPRESA                                 01300594740000000000000000300000000                      
0331366300002U 060000000000012730000000000000000000000000000000000000000000000000000000092630000000000092630000000000000000000000000000000205201405052014000000000000000000000000000                              000                           
0331366300003T 06300400130059474        00000000054362130002         0205201400000000000799008400001                         002012345679989896EMPRESA                                 01300594740000000000000000400000000                      
0331366300004U 060000000000000000000000000000000000000000000000000000000000000000000000079900000000000079900000000000000000000000000000000205201405052014000000000000000000000000000                              000                           
0331366300005T 06300400130059474        00000000054602130019         0205201400000000001598034104837                         002012345679989896EMPRESA                                 01300594740000000000000000400000000                      
0331366300006U 060000000000000000000000000000000000000000000000000000000000000000000000159800000000000159800000000000000000000000000000000205201405052014000000000000000000000000000                              000                           
0331366300007T 02300400130059474        00000000055172140057         0505201400000000003398003320052                         002012345679989896EMPRESA                                 01300594740000000000003270000000000                      
0331366300008U 020000000000000000000000000000000000000000000000000000000000000000000000000000000000000000000000000000000000000000000000000205201402052014000000000000000000000000000                              000                           
0331366300009T 02300400130059474        00000000055252140020         0505201400000000001584903320052                         002012345679989896EMPRESA                                 01300594740000000000003270000000000                      
0331366300010U 020000000000000000000000000000000000000000000000000000000000000000000000000000000000000000000000000000000000000000000000000205201402052014000000000000000000000000000                              000                           
03313665         0000100000150000000000019635700000000000000000000000000000000000000000000000000000000000000000000000000198                                                                                                                     
03313669         000001000014                                                                                                                                                                                                                   
