02RETORNO01COBRANCA       00000000000000037535EMPRESA TESTE LTDA            237BRADESCO       3103160160000004856                                                                                                                                                                                                                                                                          010416         000001
1026975776200013300000090350900224669                         0000000035098570622400000000000000000000000009023103161716259-1 00000000350985706224010416000000039418023704151  000000000000000000000000000000000000000000000000000000000000000000000000000000000000000000000000000000000000000000000                          0000000000                                                                  000002
1026975776200013300000090350900224669                         0000000035098571180500000000000000000000000009023103161716872-2 00000000350985711805010416000000009030023704424  000000000000000000000000000000000000000000000000000000000000000000000000000000000000000000000000000000000000000000000                          0000000000                                                                  000003
1026975776200013300000090350900224669                         0000000035098572509100000000000000000000000009023103161718140-1 00000000350985725091010416000000013108923704151  000000000000000000000000000000000000000000000000000000000000000000000000000000000000000000000000000000000000000000000                          0000000000                                                                  000004
1026975776200013300000090350900224669                         0000000035098541919500000000000000000000000009063103161689355-1 00000000350985419195310316000000106370034102962  000000000000000000000000000000000000000000000000000000000000000000000000000000000000106370000000000000000000000000000   010416             00000000000000                                                                  000005
1026975776200013300000090350900224669                         0000000035098541920900000000000000000000000009063103161689355-2 00000000350985419209310316000000106378634102962  000000000000000000000000000000000000000000000000000000000000000000000000000000000000106378600000000000000000000000000   010416             00000000000000                                                                  000006
1026975776200013300000090350900224669                         0000000035098541922500000000000000000000000009063103161689356-2 00000000350985419225310316000000025493334102962  000000000000000000000000000000000000000000000000000000000000000000000000000000000000025493300000000000000000000000000   010416             00000000000000                                                                  000007
1026975776200013300000090350900224669                         0000000035098547507900000000000000000000000009063103161694945-6 00000000350985475079310316000000011663023700066  000000000000000000000000000000000000000000000000000000000000000000000000000000000000011663000000000000000000000000000   010416             00000000000000                                                                  000008
1026975776200013300000090350900224669                         0000000035098548653400000000000000000000000009063103161696250-3 00000000350985486534260316000000010045034104875  000000000000000000000000000000000000000000000000000000000000000000000000000000000000010128500000000008350000000000000   010416             00000000000000                                                                  000009
1026975776200013300000090350900224669                         0000000035098548969P00000000000000000000000009063103161696839-6 0000000035098548969P270316000000009245523700545  000000000000000000000000000000000000000000000000000000000000000000000000000000000000009307100000000006160000000000000   010416             00000000000000                                                                  000010
1026975776200013300000090350900224669                         0000000035098549636P00000000000000000000000009063103161697456-4 0000000035098549636P240316000000007610074800179  000000000000000000000000000000000000000000000000000000000000000000000000000000000000007698900000000008890000000000000   010416             00000000000000                                                                  000011
1026975776200013300000090350900224669                         0000000035098550151700000000000000000000000009063103161697911-6 00000000350985501517310316000000006105610400960  000000000000000000000000000000000000000000000000000000000000000000000000000000000000006105600000000000000000000000000   010416             00000000000000                                                                  000012
1026975776200013300000090350900224669                         0000000035098550435400000000000000000000000009063103161698213-4 00000000350985504354280316000000006080003303352  000000000000000000000000000000000000000000000000000000000000000000000000000000000000006110300000000003030000000000000   010416             00000000000000                                                                  000013
1026975776200013300000090350900224669                         0000000035098550954200000000000000000000000009063103161698682-2 00000000350985509542290316000000005050134108654  000000000000000000000000000000000000000000000000000000000000000000000000000000000000005066900000000001680000000000000   010416             00000000000000                                                                  000014
1026975776200013300000090350900224669                         0000000035098551175P00000000000000000000000009063103161699009-4 0000000035098551175P310316000000019630000101555  000000000000000000000000000000000000000000000000000000000000000000000000000000000000019630000000000000000000000000000   010416             00000000000000                                                                  000015
1026975776200013300000090350900224669                         0000000035098551186500000000000000000000000009063103161699016-4 00000000350985511865310316000000009987710401675  000000000000000000000000000000000000000000000000000000000000000000000000000000000000009987700000000000000000000000000   010416             00000000000000                                                                  000016
1026975776200013300000090350900224669                         0000000035098551192P00000000000000000000000009063103161699018-4 0000000035098551192P310316000000007590023701407  000000000000000000000000000000000000000000000000000000000000000000000000000000000000007590000000000000000000000000000   010416             00000000000000                                                                  000017
1026975776200013300000090350900224669                         0000000035098551209800000000000000000000000009063103161699028-4 00000000350985512098310316000000013756934108910  000000000000000000000000000000000000000000000000000000000000000000000000000000000000013756900000000000000000000000000   010416             00000000000000                                                                  000018
1026975776200013300000090350900224669                         0000000035098551213600000000000000000000000009063103161699078-4 00000000350985512136310316000000021040003300389  000000000000000000000000000000000000000000000000000000000000000000000000000000000000021040000000000000000000000000000   010416             00000000000000                                                                  000019
1026975776200013300000090350900224669                         0000000035098551218700000000000000000000000009063103161699079-4 00000000350985512187310316000000009110003301087  000000000000000000000000000000000000000000000000000000000000000000000000000000000000009110000000000000000000000000000   010416             00000000000000                                                                  000020
1026975776200013300000090350900224669                         0000000035098551223300000000000000000000000009063103161699080-4 00000000350985512233310316000000008050023700910  000000000000000000000000000000000000000000000000000000000000000000000000000000000000008050000000000000000000000000000   010416             00000000000000                                                                  000021
1026975776200013300000090350900224669                         0000000035098551234900000000000000000000000009063103161699088-4 00000000350985512349310316000000010260023700545  000000000000000000000000000000000000000000000000000000000000000000000000000000000000010260000000000000000000000000000   010416             00000000000000                                                                  000022
1026975776200013300000090350900224669                         0000000035098551257800000000000000000000000009063103161699102-4 00000000350985512578310316000000029340010400429  000000000000000000000000000000000000000000000000000000000000000000000000000000000000029340000000000000000000000000000   010416             00000000000000                                                                  000023
1026975776200013300000090350900224669                         0000000035098551272100000000000000000000000009063103161699112-4 00000000350985512721310316000000005790004100300  000000000000000000000000000000000000000000000000000000000000000000000000000000000000005790000000000000000000000000000   010416             00000000000000                                                                  000024
1026975776200013300000090350900224669                         0000000035098551277200000000000000000000000009063103161699113-4 00000000350985512772310316000000000510004100300  000000000000000000000000000000000000000000000000000000000000000000000000000000000000000510000000000000000000000000000   010416             00000000000000                                                                  000025
1026975776200013300000090350900224669                         0000000035098551286100000000000000000000000009063103161699116-4 00000000350985512861310316000000009900004100977  000000000000000000000000000000000000000000000000000000000000000000000000000000000000009900000000000000000000000000000   010416             00000000000000                                                                  000026
1026975776200013300000090350900224669                         0000000035098551289600000000000000000000000009063103161699117-2 00000000350985512896310316000000004050004100977  000000000000000000000000000000000000000000000000000000000000000000000000000000000000004050000000000000000000000000000   010416             00000000000000                                                                  000027
1026975776200013300000090350900224669                         0000000035098551291800000000000000000000000009063103161699120-2 00000000350985512918310316000000006199004100977  000000000000000000000000000000000000000000000000000000000000000000000000000000000000006199000000000000000000000000000   010416             00000000000000                                                                  000028
1026975776200013300000090350900224669                         0000000035098551295000000000000000000000000009063103161699121-4 00000000350985512950310316000000005460004100977  000000000000000000000000000000000000000000000000000000000000000000000000000000000000005460000000000000000000000000000   010416             00000000000000                                                                  000029
1026975776200013300000090350900224669                         0000000035098551299300000000000000000000000009063103161699123-2 00000000350985512993310316000000004393734106321  000000000000000000000000000000000000000000000000000000000000000000000000000000000000004393700000000000000000000000000   010416             00000000000000                                                                  000030
1026975776200013300000090350900224669                         0000000035098551303500000000000000000000000009063103161699124-4 00000000350985513035310316000000009700004100943  000000000000000000000000000000000000000000000000000000000000000000000000000000000000009700000000000000000000000000000   010416             00000000000000                                                                  000031
1026975776200013300000090350900224669                         0000000035098551317500000000000000000000000009063103161699130-4 00000000350985513175310316000000008890000103403  000000000000000000000000000000000000000000000000000000000000000000000000000000000000008890000000000000000000000000000   010416             00000000000000                                                                  000032
1026975776200013300000090350900224669                         0000000035098551363900000000000000000000000009063103161699207-4 00000000350985513639310316000000005969904100788  000000000000000000000000000000000000000000000000000000000000000000000000000000000000005969900000000000000000000000000   010416             00000000000000                                                                  000033
1026975776200013300000090350900224669                         0000000035098551418P00000000000000000000000009063103161699323-4 0000000035098551418P310316000000021520010401332  000000000000000000000000000000000000000000000000000000000000000000000000000000000000021520000000000000000000000000000   010416             00000000000000                                                                  000034
1026975776200013300000090350900224669                         0000000035098551430900000000000000000000000009063103161699328-4 00000000350985514309310316000000005140010400888  000000000000000000000000000000000000000000000000000000000000000000000000000000000000005140000000000000000000000000000   010416             00000000000000                                                                  000035
1026975776200013300000090350900224669                         0000000035098551440600000000000000000000000009063103161699332-4 00000000350985514406310316000000013210000102689  000000000000000000000000000000000000000000000000000000000000000000000000000000000000013210000000000000000000000000000   010416             00000000000000                                                                  000036
1026975776200013300000090350900224669                         0000000035098551452P00000000000000000000000009063103161699344-4 0000000035098551452P310316000000006730000100680  000000000000000000000000000000000000000000000000000000000000000000000000000000000000006730000000000000000000000000000   010416             00000000000000                                                                  000037
1026975776200013300000090350900224669                         0000000035098551456200000000000000000000000009063103161699347-2 00000000350985514562310316000000005173504100630  000000000000000000000000000000000000000000000000000000000000000000000000000000000000005173500000000000000000000000000   010416             00000000000000                                                                  000038
1026975776200013300000090350900224669                         0000000035098551460000000000000000000000000009063103161699350-2 00000000350985514600310316000000003448574800230  000000000000000000000000000000000000000000000000000000000000000000000000000000000000003448500000000000000000000000000   010416             00000000000000                                                                  000039
1026975776200013300000090350900224669                         0000000035098551464300000000000000000000000009063103161699351-4 00000000350985514643310316000000006350074800230  000000000000000000000000000000000000000000000000000000000000000000000000000000000000006350000000000000000000000000000   010416             00000000000000                                                                  000040
1026975776200013300000090350900224669                         0000000035098551495300000000000000000000000009063103161699368-4 00000000350985514953310316000000005780074801361  000000000000000000000000000000000000000000000000000000000000000000000000000000000000005780000000000000000000000000000   010416             00000000000000                                                                  000041
1026975776200013300000090350900224669                         0000000035098551510000000000000000000000000009063103161699377-4 00000000350985515100310316000000009170074801014  000000000000000000000000000000000000000000000000000000000000000000000000000000000000009170000000000000000000000000000   010416             00000000000000                                                                  000042
1026975776200013300000090350900224669                         0000000035098551532100000000000000000000000009063103161699390-4 00000000350985515321310316000000007740000102708  000000000000000000000000000000000000000000000000000000000000000000000000000000000000007740000000000000000000000000000   010416             00000000000000                                                                  000043
1026975776200013300000090350900224669                         0000000035098551557700000000000000000000000009063103161699402-4 00000000350985515577310316000000006930010402077  000000000000000000000000000000000000000000000000000000000000000000000000000000000000006930000000000000000000000000000   010416             00000000000000                                                                  000044
1026975776200013300000090350900224669                         0000000035098551592500000000000000000000000009063103161699419-4 00000000350985515925310316000000004710023702796  000000000000000000000000000000000000000000000000000000000000000000000000000000000000004710000000000000000000000000000   010416             00000000000000                                                                  000045
1026975776200013300000090350900224669                         0000000035098551603400000000000000000000000009063103161699423-4 00000000350985516034310316000000008380010404062  000000000000000000000000000000000000000000000000000000000000000000000000000000000000008380000000000000000000000000000   010416             00000000000000                                                                  000046
1026975776200013300000090350900224669                         0000000035098551623900000000000000000000000009063103161699435-4 00000000350985516239310316000000005780010400605  000000000000000000000000000000000000000000000000000000000000000000000000000000000000005780000000000000000000000000000   010416             00000000000000                                                                  000047
1026975776200013300000090350900224669                         0000000035098551641700000000000000000000000009063103161699445-4 00000000350985516417310316000000012400010404009  000000000000000000000000000000000000000000000000000000000000000000000000000000000000012400000000000000000000000000000   010416             00000000000000                                                                  000048
1026975776200013300000090350900224669                         0000000035098551691300000000000000000000000009063103161699464-4 00000000350985516913310316000000009420010403086  000000000000000000000000000000000000000000000000000000000000000000000000000000000000009420000000000000000000000000000   010416             00000000000000                                                                  000049
1026975776200013300000090350900224669                         0000000035098551696400000000000000000000000009063103161699466-3 00000000350985516964310316000000049890039900181  000000000000000000000000000000000000000000000000000000000000000000000000000000000000049890000000000000000000000000000   010416             00000000000000                                                                  000050
1026975776200013300000090350900224669                         0000000035098551702200000000000000000000000009063103161699467-4 00000000350985517022310316000000013670023701965  000000000000000000000000000000000000000000000000000000000000000000000000000000000000013670000000000000000000000000000   010416             00000000000000                                                                  000051
1026975776200013300000090350900224669                         0000000035098551716200000000000000000000000009063103161699511-4 00000000350985517162310316000000005650023700231  000000000000000000000000000000000000000000000000000000000000000000000000000000000000005650000000000000000000000000000   010416             00000000000000                                                                  000052
1026975776200013300000090350900224669                         0000000035098551744800000000000000000000000009063103161699526-4 00000000350985517448310316000000009640000104694  000000000000000000000000000000000000000000000000000000000000000000000000000000000000009640000000000000000000000000000   010416             00000000000000                                                                  000053
1026975776200013300000090350900224669                         0000000035098552154200000000000000000000000009063103161699822-4 00000000350985521542020416000000004260010403502  000000000000000000000000000000000000000000000000000000000000000000000000000000000000004260000000000000000000000000000   010416             00000000000000                                                                  000054
1026975776200013300000090350900224669                         0000000035098552234400000000000000000000000009063103161699868-4 00000000350985522344020416000000008450023700005  000000000000000000000000000000000000000000000000000000000000000000000000000000000000008450000000000000000000000000000   010416             00000000000000                                                                  000055
1026975776200013300000090350900224669                         0000000035098552359600000000000000000000000009063103161699934-4 00000000350985523596030416000000022780003304421  000000000000000000000000000000000000000000000000000000000000000000000000000000000000022780000000000000000000000000000   010416             00000000000000                                                                  000056
1026975776200013300000090350900224669                         0000000035098552388P00000000000000000000000009063103161699946-4 0000000035098552388P020416000000007760010403271  000000000000000000000000000000000000000000000000000000000000000000000000000000000000007760000000000000000000000000000   010416             00000000000000                                                                  000057
1026975776200013300000090350900224669                         0000000035098553155600000000000000000000000009063103161700519-4 00000000350985531556040416000000011520000100141  000000000000000000000000000000000000000000000000000000000000000000000000000000000000011520000000000000000000000000000   010416             00000000000000                                                                  000058
1026975776200013300000090350900224669                         0000000035098553450400000000000000000000000009063103161700835-5 00000000350985534504020416000000007730010400317  000000000000000000000000000000000000000000000000000000000000000000000000000000000000007730000000000000000000000000000   010416             00000000000000                                                                  000059
1026975776200013300000090350900224669                         0000000035098554348100000000000000000000000009063103161701787-3 00000000350985543481250316000000006970023701823  000000000000000000000000000000000000000000000000000000000000000000000000000000000000007039600000000006960000000000000   010416             00000000000000                                                                  000060
1026975776200013300000090350900224669                         0000000035098554838600000000000000000000000009063103161702133-3 00000000350985548386260316000000018500010404844  000000000000000000000000000000000000000000000000000000000000000000000000000000000000018654000000000015400000000000000   010416             00000000000000                                                                  000061
1026975776200013300000090350900224669                         0000000035098554938200000000000000000000000009063103161702175-3 00000000350985549382260316000000011110000101562  000000000000000000000000000000000000000000000000000000000000000000000000000000000000011202500000000009250000000000000   010416             00000000000000                                                                  000062
1026975776200013300000090350900224669                         0000000035098554963300000000000000000000000009063103161702189-2 00000000350985549633260316000000006160003304414  000000000000000000000000000000000000000000000000000000000000000000000000000000000000006211500000000005150000000000000   010416             00000000000000                                                                  000063
1026975776200013300000090350900224669                         0000000035098554993500000000000000000000000009063103161702200-2 00000000350985549935260316000000005305823706484  000000000000000000000000000000000000000000000000000000000000000000000000000000000000005349800000000004400000000000000   010416             00000000000000                                                                  000064
1026975776200013300000090350900224669                         0000000035098555070400000000000000000000000009063103161702330-2 00000000350985550704100416000000005875110400157  000000000000000000000000000000000000000000000000000000000000000000000000000000000000005875100000000000000000000000000   010416             00000000000000                                                                  000065
1026975776200013300000090350900224669                         0000000035098555162P00000000000000000000000009063103161702372-3 0000000035098555162P260316000000008280023702913  000000000000000000000000000000000000000000000000000000000000000000000000000000000000008349000000000006900000000000000   010416             00000000000000                                                                  000066
1026975776200013300000090350900224669                         0000000035098555413000000000000000000000000009063103161702568-3 00000000350985554130270316000000007857323702405  000000000000000000000000000000000000000000000000000000000000000000000000000000000000007909700000000005240000000000000   010416             00000000000000                                                                  000067
1026975776200013300000090350900224669                         0000000035098555501300000000000000000000000009063103161702604-2 00000000350985555013270316000000008340010400575  000000000000000000000000000000000000000000000000000000000000000000000000000000000000008395600000000005560000000000000   010416             00000000000000                                                                  000068
1026975776200013300000090350900224669                         0000000035098555523400000000000000000000000009063103161702615-3 00000000350985555234270316000000008460010401176  000000000000000000000000000000000000000000000000000000000000000000000000000000000000008516400000000005640000000000000   010416             00000000000000                                                                  000069
1026975776200013300000090350900224669                         0000000035098555998100000000000000000000000009063103161702882-3 00000000350985559981280316000000015940000103233  000000000000000000000000000000000000000000000000000000000000000000000000000000000000016019800000000007980000000000000   010416             00000000000000                                                                  000070
1026975776200013300000090350900224669                         0000000035098556016500000000000000000000000009063103161702889-3 00000000350985560165280316000000011370000103233  000000000000000000000000000000000000000000000000000000000000000000000000000000000000011427000000000005700000000000000   010416             00000000000000                                                                  000071
1026975776200013300000090350900224669                         0000000035098556102100000000000000000000000009063103161702964-5 00000000350985561021280316000000007440010403253  000000000000000000000000000000000000000000000000000000000000000000000000000000000000007477200000000003720000000000000   010416             00000000000000                                                                  000072
1026975776200013300000090350900224669                         0000000035098556143900000000000000000000000009063103161703271-3 00000000350985561439300316000000005510004100150  000000000000000000000000000000000000000000000000000000000000000000000000000000000000005519200000000000920000000000000   010416             00000000000000                                                                  000073
1026975776200013300000090350900224669                         0000000035098556420900000000000000000000000009063103161703626-3 00000000350985564209300316000000012170075603175  000000000000000000000000000000000000000000000000000000000000000000000000000000000000012190300000000002030000000000000   010416             00000000000000                                                                  000074
1026975776200013300000090350900224669                         0000000035098556534500000000000000000000000009063103161703811-2 00000000350985565345310316000000020980000100163  000000000000000000000000000000000000000000000000000000000000000000000000000000000000020980000000000000000000000000000   010416             00000000000000                                                                  000075
1026975776200013300000090350900224669                         0000000035098556538800000000000000000000000009063103161703813-2 00000000350985565388310316000000007640010400334  000000000000000000000000000000000000000000000000000000000000000000000000000000000000007640000000000000000000000000000   010416             00000000000000                                                                  000076
1026975776200013300000090350900224669                         0000000035098556541800000000000000000000000009063103161703814-2 00000000350985565418310316000000006154410400334  000000000000000000000000000000000000000000000000000000000000000000000000000000000000006154400000000000000000000000000   010416             00000000000000                                                                  000077
1026975776200013300000090350900224669                         0000000035098556547700000000000000000000000009063103161703817-2 00000000350985565477310316000000006461910400740  000000000000000000000000000000000000000000000000000000000000000000000000000000000000006461900000000000000000000000000   010416             00000000000000                                                                  000078
1026975776200013300000090350900224669                         0000000035098556549300000000000000000000000009063103161703818-2 00000000350985565493310316000000008260010401198  000000000000000000000000000000000000000000000000000000000000000000000000000000000000008260000000000000000000000000000   010416             00000000000000                                                                  000079
1026975776200013300000090350900224669                         0000000035098556553100000000000000000000000009063103161703820-2 00000000350985565531310316000000009690003300534  000000000000000000000000000000000000000000000000000000000000000000000000000000000000009690000000000000000000000000000   010416             00000000000000                                                                  000080
1026975776200013300000090350900224669                         0000000035098556556600000000000000000000000009063103161703822-2 00000000350985565566310316000000006700010400322  000000000000000000000000000000000000000000000000000000000000000000000000000000000000006700000000000000000000000000000   010416             00000000000000                                                                  000081
1026975776200013300000090350900224669                         0000000035098556560400000000000000000000000009063103161703823-3 00000000350985565604310316000000008400000100413  000000000000000000000000000000000000000000000000000000000000000000000000033323000000005067700000000000000000000000000   010416             00000000000000                                                                  000082
1026975776200013300000090350900224669                         0000000035098556566300000000000000000000000009063103161703825-3 00000000350985565663310316000000022110023700533  000000000000000000000000000000000000000000000000000000000000000000000000036922000000018417800000000000000000000000000   010416             00000000000000                                                                  000083
1026975776200013300000090350900224669                         0000000035098556570100000000000000000000000009063103161703829-2 00000000350985565701310316000000006510000103397  000000000000000000000000000000000000000000000000000000000000000000000000000000000000006510000000000000000000000000000   010416             00000000000000                                                                  000084
1026975776200013300000090350900224669                         0000000035098556574400000000000000000000000009063103161703831-3 00000000350985565744310316000000008570000102664  000000000000000000000000000000000000000000000000000000000000000000000000019276000000006642400000000000000000000000000   010416             00000000000000                                                                  000085
1026975776200013300000090350900224669                         0000000035098556581700000000000000000000000009063103161703835-2 00000000350985565817310316000000007180003300047  000000000000000000000000000000000000000000000000000000000000000000000000000000000000007180000000000000000000000000000   010416             00000000000000                                                                  000086
1026975776200013300000090350900224669                         0000000035098556588400000000000000000000000009063103161703839-2 00000000350985565884010416000000008329874807122  000000000000000000000000000000000000000000000000000000000000000000000000000000000000008329800000000000000000000000000   010416             00000000000000                                                                  000087
1026975776200013300000090350900224669                         0000000035098556650300000000000000000000000009063103161703905-4 00000000350985566503310316000000008450034108633  000000000000000000000000000000000000000000000000000000000000000000000000000000000000008450000000000000000000000000000   010416             00000000000000                                                                  000088
1026975776200013300000090350900224669                         0000000035098556655400000000000000000000000009063103161703907-2 00000000350985566554310316000000007566723700481  000000000000000000000000000000000000000000000000000000000000000000000000000000000000007566700000000000000000000000000   010416             00000000000000                                                                  000089
1026975776200013300000090350900224669                         0000000035098556670800000000000000000000000009063103161703916-3 00000000350985566708310316000000006230075604442  000000000000000000000000000000000000000000000000000000000000000000000000000000000000006230000000000000000000000000000   010416             00000000000000                                                                  000090
1026975776200013300000090350900224669                         0000000035098556680500000000000000000000000009063103161703920-2 00000000350985566805310316000000005147510400964  000000000000000000000000000000000000000000000000000000000000000000000000000000000000005147500000000000000000000000000   010416             00000000000000                                                                  000091
1026975776200013300000090350900224669                         0000000035098556683P00000000000000000000000009063103161703921-3 0000000035098556683P310316000000031520039900181  000000000000000000000000000000000000000000000000000000000000000000000000000000000000031520000000000000000000000000000   010416             00000000000000                                                                  000092
1026975776200013300000090350900224669                         0000000035098556688000000000000000000000000009063103161703924-2 00000000350985566880310316000000006891903300346  000000000000000000000000000000000000000000000000000000000000000000000000000000000000006891900000000000000000000000000   010416             00000000000000                                                                  000093
1026975776200013300000090350900224669                         0000000035098556820400000000000000000000000009063103161704126-2 00000000350985568204010416000000004750334103709  000000000000000000000000000000000000000000000000000000000000000000000000000000000000004750300000000000000000000000000   010416             00000000000000                                                                  000094
1026975776200013300000090350900224669                         0000000035098556822000000000000000000000000009063103161704127-2 00000000350985568220010416000000005209534103709  000000000000000000000000000000000000000000000000000000000000000000000000000000000000005209500000000000000000000000000   010416             00000000000000                                                                  000095
1026975776200013300000090350900224669                         0000000035098556854900000000000000000000000009063103161704142-2 00000000350985568549010416000000013240010403512  000000000000000000000000000000000000000000000000000000000000000000000000000000000000013240000000000000000000000000000   010416             00000000000000                                                                  000096
1026975776200013300000090350900224669                         0000000035098557245700000000000000000000000009063103161704405-3 00000000350985572457020416000000009410034108266  000000000000000000000000000000000000000000000000000000000000000000000000000000000000009410000000000000000000000000000   010416             00000000000000                                                                  000097
1026975776200013300000090350900224669                         0000000035098557364P00000000000000000000000009063103161704472-3 0000000035098557364P020416000000005996810403966  000000000000000000000000000000000000000000000000000000000000000000000000000000000000005996800000000000000000000000000   010416             00000000000000                                                                  000098
1026975776200013300000090350900224669                         0000000035098557410700000000000000000000000009063103161704505-3 00000000350985574107020416000000006079823700231  000000000000000000000000000000000000000000000000000000000000000000000000000000000000006079800000000000000000000000000   010416             00000000000000                                                                  000099
1026975776200013300000090350900224669                         0000000035098557434400000000000000000000000009063103161704514-3 00000000350985574344020416000000007570000101645  000000000000000000000000000000000000000000000000000000000000000000000000000000000000007570000000000000000000000000000   010416             00000000000000                                                                  000100
1026975776200013300000090350900224669                         0000000035098557510300000000000000000000000009063103161704605-3 00000000350985575103230316000000006140023701988  000000000000000000000000000000000000000000000000000000000000000000000000000000000000006221600000000008160000000000000   010416             00000000000000                                                                  000101
1026975776200013300000090350900224669                         0000000035098557550200000000000000000000000009063103161704616-4 00000000350985575502020416000000013669210401228  000000000000000000000000000000000000000000000000000000000000000000000000000000000000013669200000000000000000000000000   010416             00000000000000                                                                  000102
1026975776200013300000090350900224669                         0000000035098557629000000000000000000000000009063103161704662-2 00000000350985576290020416000000011000034105734  000000000000000000000000000000000000000000000000000000000000000000000000000000000000011000000000000000000000000000000   010416             00000000000000                                                                  000103
1026975776200013300000090350900224669                         0000000035098557643600000000000000000000000009063103161704671-3 00000000350985576436020416000000014040010404761  000000000000000000000000000000000000000000000000000000000000000000000000000000000000014040000000000000000000000000000   010416             00000000000000                                                                  000104
1026975776200013300000090350900224669                         0000000035098557802100000000000000000000000009063103161704760-2 00000000350985578021030416000000010160013605731  000000000000000000000000000000000000000000000000000000000000000000000000000000000000010160000000000000000000000000000   010416             00000000000000                                                                  000105
1026975776200013300000090350900224669                         0000000035098557990700000000000000000000000009063103161704887-3 00000000350985579907040416000000007090000107030  000000000000000000000000000000000000000000000000000000000000000000000000000000000000007090000000000000000000000000000   010416             00000000000000                                                                  000106
1026975776200013300000090350900224669                         0000000035098558184700000000000000000000000009063103161705040-2 00000000350985581847040416000000005130703300513  000000000000000000000000000000000000000000000000000000000000000000000000000000000000005130700000000000000000000000000   010416             00000000000000                                                                  000107
1026975776200013300000090350900224669                         0000000035098559236900000000000000000000000009063103161706129-3 00000000350985592369310316000000005140023701610  000000000000000000000000000000000000000000000000000000000000000000000000000000000000005140000000000000000000000000000   010416             00000000000000                                                                  000108
1026975776200013300000090350900224669                         0000000035098559264400000000000000000000000009063103161706140-3 00000000350985592644310316000000013920034101292  000000000000000000000000000000000000000000000000000000000000000000000000000000000000013920000000000000000000000000000   010416             00000000000000                                                                  000109
1026975776200013300000090350900224669                         0000000035098559340300000000000000000000000009063103161706208-2 00000000350985593403310316000000006340010400280  000000000000000000000000000000000000000000000000000000000000000000000000000000000000006340000000000000000000000000000   010416             00000000000000                                                                  000110
1026975776200013300000090350900224669                         0000000035098559347000000000000000000000000009063103161706210-2 00000000350985593470310316000000005060000106757  000000000000000000000000000000000000000000000000000000000000000000000000000000000000005060000000000000000000000000000   010416             00000000000000                                                                  000111
1026975776200013300000090350900224669                         0000000035098559380200000000000000000000000009063103161706230-1 00000000350985593802260316000000007894523702031  000000000000000000000000000000000000000000000000000000000000000000000000000000000000007960500000000006600000000000000   010416             00000000000000                                                                  000112
1026975776200013300000090350900224669                         0000000035098559430200000000000000000000000009063103161706278-2 00000000350985594302270316000000004660075601850  000000000000000000000000000000000000000000000000000000000000000000000000000000000000004691200000000003120000000000000   010416             00000000000000                                                                  000113
1026975776200013300000090350900224669                         0000000035098559437P00000000000000000000000009063103161706281-1 0000000035098559437P270316000000006184610400977  000000000000000000000000000000000000000000000000000000000000000000000000000000000000006225800000000004120000000000000   010416             00000000000000                                                                  000114
1026975776200013300000090350900224669                         0000000035098559512000000000000000000000000009063103161706352-1 00000000350985595120270316000000005510009800002  000000000000000000000000000000000000000000000000000000000000000000000000000000000000005546800000000003680000000000000   010416             00000000000000                                                                  000115
1026975776200013300000090350900224669                         0000000035098559521P00000000000000000000000009063103161706369-1 0000000035098559521P270316000000006363323700057  000000000000000000000000000000000000000000000000000000000000000000000000000000000000006405700000000004240000000000000   010416             00000000000000                                                                  000116
1026975776200013300000090350900224669                         0000000035098559893600000000000000000000000009063103161706660-1 00000000350985598936290316000000009118723700527  000000000000000000000000000000000000000000000000000000000000000000000000000000000000009149100000000003040000000000000   010416             00000000000000                                                                  000117
1026975776200013300000090350900224669                         0000000035098560278P00000000000000000000000009063103161706966-4 0000000035098560278P030416000000009810010400928  000000000000000000000000000000000000000000000000000000000000000000000000000000000000009810000000000000000000000000000   010416             00000000000000                                                                  000118
1026975776200013300000090350900224669                         0000000035098560436700000000000000000000000009063103161707160-3 00000000350985604367030416000000005120003303425  000000000000000000000000000000000000000000000000000000000000000000000000000000000000005120000000000000000000000000000   010416             00000000000000                                                                  000119
1026975776200013300000090350900224669                         0000000035098560500200000000000000000000000009063103161707187-3 00000000350985605002130416000000005329504100047  000000000000000000000000000000000000000000000000000000000000000000000000000000000000005329500000000000000000000000000   010416             00000000000000                                                                  000120
1026975776200013300000090350900224669                         0000000035098560675000000000000000000000000009063103161707549-2 00000000350985606750310316000000006200010404090  000000000000000000000000000000000000000000000000000000000000000000000000000000000000006200000000000000000000000000000   010416             00000000000000                                                                  000121
1026975776200013300000090350900224669                         0000000035098560890700000000000000000000000009063103161707675-1 00000000350985608907010416000000006364010402884  000000000000000000000000000000000000000000000000000000000000000000000000000000000000006364000000000000000000000000000   010416             00000000000000                                                                  000122
1026975776200013300000090350900224669                         0000000035098561009P00000000000000000000000009063103161707725-2 0000000035098561009P010416000000006400075601613  000000000000000000000000000000000000000000000000000000000000000000000000000000000000006400000000000000000000000000000   010416             00000000000000                                                                  000123
1026975776200013300000090350900224669                         0000000035098561083900000000000000000000000009063103161707763-2 00000000350985610839270316000000014730010402209  000000000000000000000000000000000000000000000000000000000000000000000000000000000000014828400000000009840000000000000   010416             00000000000000                                                                  000124
1026975776200013300000090350900224669                         0000000035098561147900000000000000000000000009063103161707789-1 00000000350985611479010416000000005735110401998  000000000000000000000000000000000000000000000000000000000000000000000000000000000000005735100000000000000000000000000   010416             00000000000000                                                                  000125
1026975776200013300000090350900224669                         0000000035098561156800000000000000000000000009063103161707794-2 00000000350985611568010416000000006490010403047  000000000000000000000000000000000000000000000000000000000000000000000000000000000000006490000000000000000000000000000   010416             00000000000000                                                                  000126
1026975776200013300000090350900224669                         0000000035098561296300000000000000000000000009063103161707858-2 00000000350985612963010416000000008980010400272  000000000000000000000000000000000000000000000000000000000000000000000000000000000000008980000000000000000000000000000   010416             00000000000000                                                                  000127
1026975776200013300000090350900224669                         0000000035098561428100000000000000000000000009063103161707942-1 00000000350985614281010416000000004630034100895  000000000000000000000000000000000000000000000000000000000000000000000000000000000000004630000000000000000000000000000   010416             00000000000000                                                                  000128
1026975776200013300000090350900224669                         0000000035098561673P00000000000000000000000009063103161708184-1 0000000035098561673P030416000000005638110403271  000000000000000000000000000000000000000000000000000000000000000000000000000000000000005638100000000000000000000000000   010416             00000000000000                                                                  000129
1026975776200013300000090350900224669                         0000000035098561813900000000000000000000000009063103161708252-2 00000000350985618139030416000000007050010404079  000000000000000000000000000000000000000000000000000000000000000000000000000000000000007050000000000000000000000000000   010416             00000000000000                                                                  000130
1026975776200013300000090350900224669                         0000000035098562131800000000000000000000000009063103161708472-1 00000000350985621318030416000000004470010400264  000000000000000000000000000000000000000000000000000000000000000000000000000000000000004470000000000000000000000000000   010416             00000000000000                                                                  000131
1026975776200013300000090350900224669                         0000000035098562291800000000000000000000000009063103161708650-2 00000000350985622918310316000000006760003300545  000000000000000000000000000000000000000000000000000000000000000000000000000000000000006760000000000000000000000000000   010416             00000000000000                                                                  000132
1026975776200013300000090350900224669                         0000000035098562303500000000000000000000000009063103161708653-2 00000000350985623035310316000000010270000103383  000000000000000000000000000000000000000000000000000000000000000000000000000000000000010270000000000000000000000000000   010416             00000000000000                                                                  000133
1026975776200013300000090350900224669                         0000000035098562350700000000000000000000000009063103161708760-2 00000000350985623507310316000000005830034100838  000000000000000000000000000000000000000000000000000000000000000000000000000000000000005830000000000000000000000000000   010416             00000000000000                                                                  000134
1026975776200013300000090350900224669                         0000000035098562355800000000000000000000000009063103161708762-1 00000000350985623558050416000000008195839901804  000000000000000000000000000000000000000000000000000000000000000000000000000000000000008195800000000000000000000000000   010416             00000000000000                                                                  000135
1026975776200013300000090350900224669                         0000000035098562370100000000000000000000000009063103161708769-2 00000000350985623701310316000000009560023703354  000000000000000000000000000000000000000000000000000000000000000000000000000000000000009560000000000000000000000000000   010416             00000000000000                                                                  000136
1026975776200013300000090350900224669                         0000000035098562488000000000000000000000000009063103161708887-2 00000000350985624880310316000000005930003300832  000000000000000000000000000000000000000000000000000000000000000000000000000000000000005930000000000000000000000000000   010416             00000000000000                                                                  000137
1026975776200013300000090350900224669                         0000000035098562562300000000000000000000000009063103161708959-2 00000000350985625623310316000000005340039900660  000000000000000000000000000000000000000000000000000000000000000000000000000000000000005340000000000000000000000000000   010416             00000000000000                                                                  000138
1026975776200013300000090350900224669                         0000000035098562569000000000000000000000000009063103161708961-2 00000000350985625690310316000000005850010403253  000000000000000000000000000000000000000000000000000000000000000000000000000000000000005850000000000000000000000000000   010416             00000000000000                                                                  000139
1026975776200013300000090350900224669                         0000000035098563670600000000000000000000000009063103161709830-1 00000000350985636706250316000000007210034100778  000000000000000000000000000000000000000000000000000000000000000000000000000000000000007282000000000007200000000000000   010416             00000000000000                                                                  000140
1026975776200013300000090350900224669                         0000000035098563727300000000000000000000000009063103161709859-1 00000000350985637273250316000000005750023702405  000000000000000000000000000000000000000000000000000000000000000000000000000000000000005807600000000005760000000000000   010416             00000000000000                                                                  000141
1026975776200013300000090350900224669                         0000000035098563938100000000000000000000000009063103161709962-3 00000000350985639381040416000000006030010401351  000000000000000000000000000000000000000000000000000000000000000000000000000000000000006030000000000000000000000000000   010416             00000000000000                                                                  000142
1026975776200013300000090350900224669                         0000000035098564046000000000000000000000000009063103161710000-1 00000000350985640460250316000000010720023702514  000000000000000000000000000000000000000000000000000000000000000000000000000000000000010827400000000010740000000000000   010416             00000000000000                                                                  000143
1026975776200013300000090350900224669                         0000000035098564166100000000000000000000000009063103161710122-1 00000000350985641661260316000000004240023701897  000000000000000000000000000000000000000000000000000000000000000000000000000000000000004275500000000003550000000000000   010416             00000000000000                                                                  000144
1026975776200013300000090350900224669                         0000000035098564343500000000000000000000000009063103161710201-2 00000000350985643435260316000000005510010400907  000000000000000000000000000000000000000000000000000000000000000000000000000000000000005556000000000004600000000000000   010416             00000000000000                                                                  000145
1026975776200013300000090350900224669                         0000000035098564678700000000000000000000000009063103161710519-1 00000000350985646787280316000000007610010400692  000000000000000000000000000000000000000000000000000000000000000000000000000000000000007648100000000003810000000000000   010416             00000000000000                                                                  000146
1026975776200013300000090350900224669                         0000000035098564752P00000000000000000000000009063103161710623-1 0000000035098564752P270316000000005000007000692  000000000000000000000000000000000000000000000000000000000000000000000000000000000000005033200000000003320000000000000   010416             00000000000000                                                                  000147
1026975776200013300000090350900224669                         0000000035098564847P00000000000000000000000009063103161710707-1 0000000035098564847P280316000000006230023701678  000000000000000000000000000000000000000000000000000000000000000000000000000000000000006261200000000003120000000000000   010416             00000000000000                                                                  000148
1026975776200013300000090350900224669                         0000000035098565294900000000000000000000000009063103161711066-1 00000000350985652949290316000000020870074807195  000000000000000000000000000000000000000000000000000000000000000000000000000000000000020939600000000006960000000000000   010416             00000000000000                                                                  000149
1026975776200013300000090350900224669                         0000000035098565367800000000000000000000000009063103161711113-1 00000000350985653678290316000000005540034100666  000000000000000000000000000000000000000000000000000000000000000000000000000000000000005558400000000001840000000000000   010416             00000000000000                                                                  000150
1026975776200013300000090350900224669                         0000000035098565424000000000000000000000000009063103161711180-1 00000000350985654240300316000000005030034104563  000000000000000000000000000000000000000000000000000000000000000000000000000000000000005038400000000000840000000000000   010416             00000000000000                                                                  000151
1026975776200013300000090350900224669                         0000000035098565484400000000000000000000000009063103161711215-1 00000000350985654844300316000000006170004100150  000000000000000000000000000000000000000000000000000000000000000000000000000000000000006180300000000001030000000000000   010416             00000000000000                                                                  000152
1026975776200013300000090350900224669                         0000000035098565534400000000000000000000000009063103161711276-1 00000000350985655344300316000000025440034108726  000000000000000000000000000000000000000000000000000000000000000000000000000000000000025482400000000004240000000000000   010416             00000000000000                                                                  000153
1026975776200013300000090350900224669                         0000000035098565602200000000000000000000000009063103161711363-1 00000000350985656022300316000000005140000102026  000000000000000000000000000000000000000000000000000000000000000000000000000000000000005148600000000000860000000000000   010416             00000000000000                                                                  000154
1026975776200013300000090350900224669                         0000000035098565813000000000000000000000000009063103161711587-1 00000000350985658130310316000000006170075603039  000000000000000000000000000000000000000000000000000000000000000000000000000000000000006170000000000000000000000000000   010416             00000000000000                                                                  000155
1026975776200013300000090350900224669                         0000000035098565820300000000000000000000000009063103161711594-1 00000000350985658203310316000000007770010403130  000000000000000000000000000000000000000000000000000000000000000000000000000000000000007770000000000000000000000000000   010416             00000000000000                                                                  000156
1026975776200013300000090350900224669                         0000000035098565826200000000000000000000000009063103161711596-1 00000000350985658262310316000000004170010403130  000000000000000000000000000000000000000000000000000000000000000000000000000000000000004170000000000000000000000000000   010416             00000000000000                                                                  000157
1026975776200013300000090350900224669                         0000000035098565832700000000000000000000000009063103161711600-1 00000000350985658327310316000000007500008500101  000000000000000000000000000000000000000000000000000000000000000000000000000000000000007500000000000000000000000000000   010416             00000000000000                                                                  000158
1026975776200013300000090350900224669                         0000000035098565835100000000000000000000000009063103161711601-1 00000000350985658351310316000000007560008500101  000000000000000000000000000000000000000000000000000000000000000000000000000000000000007560000000000000000000000000000   010416             00000000000000                                                                  000159
1026975776200013300000090350900224669                         0000000035098565842400000000000000000000000009063103161711608-1 00000000350985658424310316000000010020034106382  000000000000000000000000000000000000000000000000000000000000000000000000000000000000010020000000000000000000000000000   010416             00000000000000                                                                  000160
1026975776200013300000090350900224669                         0000000035098565849100000000000000000000000009063103161711611-1 00000000350985658491310316000000008680000105318  000000000000000000000000000000000000000000000000000000000000000000000000000000000000008680000000000000000000000000000   010416             00000000000000                                                                  000161
1026975776200013300000090350900224669                         0000000035098565851300000000000000000000000009063103161711613-1 00000000350985658513310316000000005610000104832  000000000000000000000000000000000000000000000000000000000000000000000000000000000000005610000000000000000000000000000   010416             00000000000000                                                                  000162
1026975776200013300000090350900224669                         0000000035098565854800000000000000000000000009063103161711619-1 00000000350985658548310316000000014690013601101  000000000000000000000000000000000000000000000000000000000000000000000000000000000000014690000000000000000000000000000   010416             00000000000000                                                                  000163
1026975776200013300000090350900224669                         0000000035098565860200000000000000000000000009063103161711621-1 00000000350985658602310316000000006490010401075  000000000000000000000000000000000000000000000000000000000000000000000000000000000000006490000000000000000000000000000   010416             00000000000000                                                                  000164
1026975776200013300000090350900224669                         0000000035098565865300000000000000000000000009063103161711625-1 00000000350985658653310316000000005780023702071  000000000000000000000000000000000000000000000000000000000000000000000000000000000000005780000000000000000000000000000   010416             00000000000000                                                                  000165
1026975776200013300000090350900224669                         0000000035098565871800000000000000000000000009063103161711629-1 00000000350985658718310316000000015510010401079  000000000000000000000000000000000000000000000000000000000000000000000000000000000000015510000000000000000000000000000   010416             00000000000000                                                                  000166
1026975776200013300000090350900224669                         0000000035098565875000000000000000000000000009063103161711712-1 00000000350985658750310316000000014020023702004  000000000000000000000000000000000000000000000000000000000000000000000000000000000000014020000000000000000000000000000   010416             00000000000000                                                                  000167
1026975776200013300000090350900224669                         0000000035098565890400000000000000000000000009063103161711716-1 00000000350985658904310316000000019450023702065  000000000000000000000000000000000000000000000000000000000000000000000000000000000000019450000000000000000000000000000   010416             00000000000000                                                                  000168
1026975776200013300000090350900224669                         0000000035098565895500000000000000000000000009063103161711718-1 00000000350985658955310316000000011110010400605  000000000000000000000000000000000000000000000000000000000000000000000000000000000000011110000000000000000000000000000   010416             00000000000000                                                                  000169
1026975776200013300000090350900224669                         0000000035098565900500000000000000000000000009063103161711720-1 00000000350985659005310316000000006160000101267  000000000000000000000000000000000000000000000000000000000000000000000000000000000000006160000000000000000000000000000   010416             00000000000000                                                                  000170
1026975776200013300000090350900224669                         0000000035098565907200000000000000000000000009063103161711724-1 00000000350985659072310316000000005230023700515  000000000000000000000000000000000000000000000000000000000000000000000000000000000000005230000000000000000000000000000   010416             00000000000000                                                                  000171
1026975776200013300000090350900224669                         0000000035098565911000000000000000000000000009063103161711692-1 00000000350985659110310316000000005300010403256  000000000000000000000000000000000000000000000000000000000000000000000000000000000000005300000000000000000000000000000   010416             00000000000000                                                                  000172
1026975776200013300000090350900224669                         0000000035098565919600000000000000000000000009063103161711695-1 00000000350985659196310316000000007130003300347  000000000000000000000000000000000000000000000000000000000000000000000000000000000000007130000000000000000000000000000   010416             00000000000000                                                                  000173
1026975776200013300000090350900224669                         0000000035098565927700000000000000000000000009063103161711697-1 00000000350985659277310316000000012380034109340  000000000000000000000000000000000000000000000000000000000000000000000000000000000000012380000000000000000000000000000   010416             00000000000000                                                                  000174
1026975776200013300000090350900224669                         0000000035098565930700000000000000000000000009063103161711698-1 00000000350985659307310316000000008300023701823  000000000000000000000000000000000000000000000000000000000000000000000000000000000000008300000000000000000000000000000   010416             00000000000000                                                                  000175
1026975776200013300000090350900224669                         0000000035098565940400000000000000000000000009063103161711701-1 00000000350985659404310316000000005180010400246  000000000000000000000000000000000000000000000000000000000000000000000000000000000000005180000000000000000000000000000   010416             00000000000000                                                                  000176
1026975776200013300000090350900224669                         0000000035098565945500000000000000000000000009063103161711704-1 00000000350985659455310316000000006090023702184  000000000000000000000000000000000000000000000000000000000000000000000000000000000000006090000000000000000000000000000   010416             00000000000000                                                                  000177
1026975776200013300000090350900224669                         0000000035098565949800000000000000000000000009063103161711707-1 00000000350985659498310316000000025000034107908  000000000000000000000000000000000000000000000000000000000000000000000000000000000000025000000000000000000000000000000   010416             00000000000000                                                                  000178
1026975776200013300000090350900224669                         0000000035098565963300000000000000000000000009063103161711803-1 00000000350985659633310316000000006520010404537  000000000000000000000000000000000000000000000000000000000000000000000000000000000000006520000000000000000000000000000   010416             00000000000000                                                                  000179
1026975776200013300000090350900224669                         0000000035098565976500000000000000000000000009063103161711808-1 00000000350985659765310316000000012750003300495  000000000000000000000000000000000000000000000000000000000000000000000000000000000000012750000000000000000000000000000   010416             00000000000000                                                                  000180
1026975776200013300000090350900224669                         0000000035098565985400000000000000000000000009063103161711811-1 00000000350985659854310316000000008530010400121  000000000000000000000000000000000000000000000000000000000000000000000000000000000000008530000000000000000000000000000   010416             00000000000000                                                                  000181
1026975776200013300000090350900224669                         0000000035098565995100000000000000000000000009063103161711813-1 00000000350985659951310316000000016000075604329  000000000000000000000000000000000000000000000000000000000000000000000000000000000000016000000000000000000000000000000   010416             00000000000000                                                                  000182
1026975776200013300000090350900224669                         0000000035098566000300000000000000000000000009063103161711814-1 00000000350985660003310316000000004640023705528  000000000000000000000000000000000000000000000000000000000000000000000000000000000000004640000000000000000000000000000   010416             00000000000000                                                                  000183
1026975776200013300000090350900224669                         0000000035098566021600000000000000000000000009063103161711822-1 00000000350985660216310316000000004020010404037  000000000000000000000000000000000000000000000000000000000000000000000000000000000000004020000000000000000000000000000   010416             00000000000000                                                                  000184
1026975776200013300000090350900224669                         0000000035098566029100000000000000000000000009063103161711830-2 00000000350985660291310316000000063690010400344  000000000000000000000000000000000000000000000000000000000000000000000000000000000000063690000000000000000000000000000   010416             00000000000000                                                                  000185
1026975776200013300000090350900224669                         0000000035098566035600000000000000000000000009063103161711832-2 00000000350985660356310316000000010560000103435  000000000000000000000000000000000000000000000000000000000000000000000000000000000000010560000000000000000000000000000   010416             00000000000000                                                                  000186
1026975776200013300000090350900224669                         0000000035098566041000000000000000000000000009063103161711873-1 00000000350985660410310316000000006000000106723  000000000000000000000000000000000000000000000000000000000000000000000000000000000000006000000000000000000000000000000   010416             00000000000000                                                                  000187
1026975776200013300000090350900224669                         0000000035098566046100000000000000000000000009063103161711875-1 00000000350985660461310316000000009570023700018  000000000000000000000000000000000000000000000000000000000000000000000000000000000000009570000000000000000000000000000   010416             00000000000000                                                                  000188
1026975776200013300000090350900224669                         0000000035098566054200000000000000000000000009063103161711880-1 00000000350985660542310316000000021630010400962  000000000000000000000000000000000000000000000000000000000000000000000000000000000000021630000000000000000000000000000   010416             00000000000000                                                                  000189
1026975776200013300000090350900224669                         0000000035098566059300000000000000000000000009063103161711881-1 00000000350985660593310316000000018120010400962  000000000000000000000000000000000000000000000000000000000000000000000000000000000000018120000000000000000000000000000   010416             00000000000000                                                                  000190
1026975776200013300000090350900224669                         0000000035098566067400000000000000000000000009063103161711884-1 00000000350985660674310316000000011400003300039  000000000000000000000000000000000000000000000000000000000000000000000000000000000000011400000000000000000000000000000   010416             00000000000000                                                                  000191
1026975776200013300000090350900224669                         0000000035098566070400000000000000000000000009063103161711887-1 00000000350985660704310316000000026910010400292  000000000000000000000000000000000000000000000000000000000000000000000000000000000000026910000000000000000000000000000   010416             00000000000000                                                                  000192
1026975776200013300000090350900224669                         0000000035098566078P00000000000000000000000009063103161711890-1 0000000035098566078P310316000000007640000104523  000000000000000000000000000000000000000000000000000000000000000000000000000000000000007640000000000000000000000000000   010416             00000000000000                                                                  000193
1026975776200013300000090350900224669                         0000000035098566081P00000000000000000000000009063103161711891-1 0000000035098566081P310316000000023120010401228  000000000000000000000000000000000000000000000000000000000000000000000000000000000000023120000000000000000000000000000   010416             00000000000000                                                                  000194
1026975776200013300000090350900224669                         0000000035098566083600000000000000000000000009063103161711894-1 00000000350985660836310316000000021520023701226  000000000000000000000000000000000000000000000000000000000000000000000000000000000000021520000000000000000000000000000   010416             00000000000000                                                                  000195
1026975776200013300000090350900224669                         0000000035098566088700000000000000000000000009063103161711895-1 00000000350985660887310316000000006050010400738  000000000000000000000000000000000000000000000000000000000000000000000000000000000000006050000000000000000000000000000   010416             00000000000000                                                                  000196
1026975776200013300000090350900224669                         0000000035098566095P00000000000000000000000009063103161711900-2 0000000035098566095P310316000000005950010401351  000000000000000000000000000000000000000000000000000000000000000000000000000000000000005950000000000000000000000000000   010416             00000000000000                                                                  000197
1026975776200013300000090350900224669                         0000000035098566103400000000000000000000000009063103161711904-1 00000000350985661034310316000000023560010401226  000000000000000000000000000000000000000000000000000000000000000000000000000000000000023560000000000000000000000000000   010416             00000000000000                                                                  000198
1026975776200013300000090350900224669                         0000000035098566111500000000000000000000000009063103161711906-1 00000000350985661115310316000000005420023702405  000000000000000000000000000000000000000000000000000000000000000000000000000000000000005420000000000000000000000000000   010416             00000000000000                                                                  000199
1026975776200013300000090350900224669                         0000000035098566117400000000000000000000000009063103161711908-1 00000000350985661174310316000000005510023702096  000000000000000000000000000000000000000000000000000000000000000000000000000000000000005510000000000000000000000000000   010416             00000000000000                                                                  000200
1026975776200013300000090350900224669                         0000000035098566126300000000000000000000000009063103161711911-2 00000000350985661263310316000000005600010400960  000000000000000000000000000000000000000000000000000000000000000000000000000000000000005600000000000000000000000000000   010416             00000000000000                                                                  000201
1026975776200013300000090350900224669                         0000000035098566137900000000000000000000000009063103161711915-1 00000000350985661379310316000000009110003303540  000000000000000000000000000000000000000000000000000000000000000000000000000000000000009110000000000000000000000000000   010416             00000000000000                                                                  000202
1026975776200013300000090350900224669                         0000000035098566143300000000000000000000000009063103161711917-2 00000000350985661433310316000000015840010400341  000000000000000000000000000000000000000000000000000000000000000000000000000000000000015840000000000000000000000000000   010416             00000000000000                                                                  000203
1026975776200013300000090350900224669                         0000000035098566151400000000000000000000000009063103161711924-1 00000000350985661514310316000000013140010402910  000000000000000000000000000000000000000000000000000000000000000000000000000000000000013140000000000000000000000000000   010416             00000000000000                                                                  000204
1026975776200013300000090350900224669                         0000000035098566155700000000000000000000000009063103161711925-1 00000000350985661557310316000000004320010402910  000000000000000000000000000000000000000000000000000000000000000000000000000000000000004320000000000000000000000000000   010416             00000000000000                                                                  000205
1026975776200013300000090350900224669                         0000000035098566159P00000000000000000000000009063103161711928-1 0000000035098566159P310316000000005260010403855  000000000000000000000000000000000000000000000000000000000000000000000000000000000000005260000000000000000000000000000   010416             00000000000000                                                                  000206
1026975776200013300000090350900224669                         0000000035098566162P00000000000000000000000009063103161711929-1 0000000035098566162P310316000000004950000108385  000000000000000000000000000000000000000000000000000000000000000000000000000000000000004950000000000000000000000000000   010416             00000000000000                                                                  000207
1026975776200013300000090350900224669                         0000000035098566183200000000000000000000000009063103161711945-1 00000000350985661832010416000000020230075601511  000000000000000000000000000000000000000000000000000000000000000000000000000000000000020230000000000000000000000000000   010416             00000000000000                                                                  000208
1026975776200013300000090350900224669                         0000000035098566251000000000000000000000000009063103161712005-1 00000000350985662510010416000000015110023702286  000000000000000000000000000000000000000000000000000000000000000000000000000000000000015110000000000000000000000000000   010416             00000000000000                                                                  000209
1026975776200013300000090350900224669                         0000000035098566326600000000000000000000000009063103161712059-1 00000000350985663266010416000000004220034100030  000000000000000000000000000000000000000000000000000000000000000000000000000000000000004220000000000000000000000000000   010416             00000000000000                                                                  000210
1026975776200013300000090350900224669                         0000000035098566370300000000000000000000000009063103161712076-1 00000000350985663703010416000000005100010403100  000000000000000000000000000000000000000000000000000000000000000000000000000000000000005100000000000000000000000000000   010416             00000000000000                                                                  000211
1026975776200013300000090350900224669                         0000000035098566428900000000000000000000000009063103161712111-1 00000000350985664289010416000000010420000103156  000000000000000000000000000000000000000000000000000000000000000000000000000000000000010420000000000000000000000000000   010416             00000000000000                                                                  000212
1026975776200013300000090350900224669                         0000000035098566458000000000000000000000000009063103161712125-1 00000000350985664580010416000000004580034101620  000000000000000000000000000000000000000000000000000000000000000000000000000000000000004580000000000000000000000000000   010416             00000000000000                                                                  000213
1026975776200013300000090350900224669                         0000000035098566508000000000000000000000000009063103161712190-1 00000000350985665080010416000000005622610401653  000000000000000000000000000000000000000000000000000000000000000000000000000000000000005622600000000000000000000000000   010416             00000000000000                                                                  000214
1026975776200013300000090350900224669                         0000000035098566685000000000000000000000000009063103161712279-1 00000000350985666850010416000000009490010403086  000000000000000000000000000000000000000000000000000000000000000000000000000000000000009490000000000000000000000000000   010416             00000000000000                                                                  000215
1026975776200013300000090350900224669                         0000000035098566820900000000000000000000000009063103161712360-1 00000000350985668209020416000000006320010400890  000000000000000000000000000000000000000000000000000000000000000000000000000000000000006320000000000000000000000000000   010416             00000000000000                                                                  000216
1026975776200013300000090350900224669                         0000000035098566882900000000000000000000000009063103161712499-1 00000000350985668829020416000000011840010400897  000000000000000000000000000000000000000000000000000000000000000000000000000000000000011840000000000000000000000000000   010416             00000000000000                                                                  000217
1026975776200013300000090350900224669                         0000000035098566978700000000000000000000000009063103161712580-1 00000000350985669787020416000000005740010400247  000000000000000000000000000000000000000000000000000000000000000000000000000000000000005740000000000000000000000000000   010416             00000000000000                                                                  000218
1026975776200013300000090350900224669                         0000000035098567029700000000000000000000000009063103161712605-1 00000000350985670297020416000000004420023701018  000000000000000000000000000000000000000000000000000000000000000000000000000000000000004420000000000000000000000000000   010416             00000000000000                                                                  000219
1026975776200013300000090350900224669                         0000000035098567206000000000000000000000000009063103161712736-1 00000000350985672060030416000000012600010400725  000000000000000000000000000000000000000000000000000000000000000000000000000000000000012600000000000000000000000000000   010416             00000000000000                                                                  000220
1026975776200013300000090350900224669                         0000000035098567261300000000000000000000000009063103161712795-1 00000000350985672613040416000000009640074800156  000000000000000000000000000000000000000000000000000000000000000000000000000000000000009640000000000000000000000000000   010416             00000000000000                                                                  000221
1026975776200013300000090350900224669                         0000000035098567320200000000000000000000000009063103161712837-1 00000000350985673202040416000000006990039900208  000000000000000000000000000000000000000000000000000000000000000000000000000000000000006990000000000000000000000000000   010416             00000000000000                                                                  000222
1026975776200013300000090350900224669                         0000000035098567598100000000000000000000000009063103161713411-1 00000000350985675981260316000000005580010404037  000000000000000000000000000000000000000000000000000000000000000000000000000000000000005626500000000004650000000000000   010416             00000000000000                                                                  000223
1026975776200013300000090350900224669                         0000000035098567673200000000000000000000000009063103161713526-1 00000000350985676732060416000000004370034103733  000000000000000000000000000000000000000000000000000000000000000000000000000000000000004370000000000000000000000000000   010416             00000000000000                                                                  000224
1026975776200013300000090350900224669                         0000000035098569502800000000000000000000000009063103161715355-1 00000000350985695028110416000000018380003303824  000000000000000000000000000000000000000000000000000000000000000000000000000000000000018380000000000000000000000000000   010416             00000000000000                                                                  000225
1026975776200013300000090350900224669                         0000000035098570427200000000000000000000000009063103161716137-1 00000000350985704272310316000000247763723702622  000000000000000000000000000000000000000000000000000000000000000000000000000000000000247763700000000000000000000000000   010416             00000000000000                                                                  000226
1026975776200013300000090350900224669                         0000000035098570433700000000000000000000000009063103161716141-1 00000000350985704337310316000000016193110400250  000000000000000000000000000000000000000000000000000000000000000000000000000000000000016193100000000000000000000000000   010416             00000000000000                                                                  000227
1026975776200013300000090350900224669                         0000000035098570622400000000000000000000000009063103161716259-1 00000000350985706224010416000000039418010403128  000000000000000000000000000000000000000000000000000000000000000000000000000000000000039418000000000000000000000000000   010416             00000000000000                                                                  000228
1026975776200013300000090350900224669                         0000000035098570676300000000000000000000000009063103161716354-1 00000000350985706763310316000000437018034100002  000000000000000000000000000000000000000000000000000000000000000000000000000000000000437018000000000000000000000000000   010416             00000000000000                                                                  000229
1026975776200013300000090350900224669                         0000000035098571180500000000000000000000000009063103161716872-2 00000000350985711805010416000000009030023705629  000000000000000000000000000000000000000000000000000000000000000000000000000000000000009030000000000000000000000000000   010416             00000000000000                                                                  000230
1026975776200013300000090350900224669                         0000000035098572280700000000000000000000000009063103161717899-1 00000000350985722807310316000000006432423700011  000000000000000000000000000000000000000000000000000000000000000000000000000000000000006432400000000000000000000000000   010416             00000000000000                                                                  000231
1026975776200013300000090350900224669                         0000000035098530576900000000000000000000000009103103161678287-5 00000000350985305769300116000000011713923700000  000000000000000000000000000000000000000000000000000000000000000000000000000000000000000000000000000000000000000000000                          1600000000                                                                  000232
1026975776200013300000090350900224669                         0000000035098560091400000000000000000000000009123103161706826-3 00000000350985600914130416000000009880023709999  000000000000000000000000000000000000000000000000000000000000464580000000000000000000000000000000000000000000000000000                          0000000000                                                                  000233
1026975776200013300000090350900224669                         0000000035098544007000000000000000000000000009153003161691367-5 00000000350985440070070316000000008852823704151  00000000000000000000000000000000000000000000000000000000000000000000000000000000000000885280000000000000000000000000000 010416                 0000000000                                                                  000234
1026975776200013300000090350900224669                         0000000035098548090000000000000000000000000009153003161695650-6 00000000350985480900080316000000039281723704151  00000000000000000000000000000000000000000000000000000000000000000000000000000000000003928170000000000000000000000000000 010416                 0000000000                                                                  000235
1026975776200013300000090350900224669                         0000000035098559728P00000000000000000000000009153003161706523-1 0000000035098559728P120316000000005210023704151  00000000000000000000000000000000000000000000000000000000000000000000000000000000000000521000000000000000000000000000000 010416                 0000000000                                                                  000236
1026975776200013300000090350900224669                         000000003509857099160000000000000000000000000917310316          00000000350985709916000000000000469607234108246  000000000000000000000000000000000000000000000000000000000000000000000000000000000000469607200000000000000000000000000   010416                 0000000000                                                                  000237
1026975776200013300000090350900224669                         000000003509857203400000000000000000000000000917310316          00000000350985720340000000000000008170075603116  000000000000000000000000000000000000000000000000000000000000000000000000000000000000008170000000000000000000000000000   010416                 0000000000                                                                  000238
1026975776200013300000090350900224669                         000000003509857356820000000000000000000000000917310316          00000000350985735682000000000000008935134108454  000000000000000000000000000000000000000000000000000000000000000000000000000000000000008935100000000000000000000000000   010416                 0000000000                                                                  000239
1026975776200013300000090350900224669                         000000003509857359170000000000000000000000000917310316          00000000350985735917000000000000036397503300660  000000000000000000000000000000000000000000000000000000000000000000000000000000000000036397500000000000000000000000000   010416                 0000000000                                                                  000240
1026975776200013300000090350900224669                         0000000035098551868100000000000000000000000009193103161699654-2 00000000350985518681170316000000016280023704152  000000000000000000000000000000000000000000000000000000000000000000000000000000000000000000000000000000000000000000000  A                       0000000000                                                                  000241
1026975776200013300000090350900224669                         0000000035098553423700000000000000000000000009193103161700827-3 00000000350985534237230316000000005873123704151  000000000000000000000000000000000000000000000000000000000000000000000000000000000000000000000000000000000000000000000  A                       0000000000                                                                  000242
1026975776200013300000090350900224669                         0000000035098553726000000000000000000000000009193103161701005-2 00000000350985537260230316000000015860023704143  000000000000000000000000000000000000000000000000000000000000000000000000000000000000000000000000000000000000000000000  A                       0000000000                                                                  000243
1026975776200013300000090350900224669                         0000000035098553886000000000000000000000000009193103161701178-1 00000000350985538860230316000000007388623704152  000000000000000000000000000000000000000000000000000000000000000000000000000000000000000000000000000000000000000000000  A                       0000000000                                                                  000244
1026975776200013300000090350900224669                         0000000035098553939500000000000000000000000009193103161701199-2 00000000350985539395230316000000006380023700140  000000000000000000000000000000000000000000000000000000000000000000000000000000000000000000000000000000000000000000000  A                       0000000000                                                                  000245
1026975776200013300000090350900224669                         0000000035098553946800000000000000000000000009193103161701204-3 00000000350985539468230316000000007320023700140  000000000000000000000000000000000000000000000000000000000000000000000000000000000000000000000000000000000000000000000  A                       0000000000                                                                  000246
1026975776200013300000090350900224669                         0000000035098557398400000000000000000000000009193103161704502-3 00000000350985573984230316000000006370023704152  000000000000000000000000000000000000000000000000000000000000000000000000000000000000000000000000000000000000000000000  A                       0000000000                                                                  000247
1026975776200013300000090350900224669                         0000000035098558935P00000000000000000000000009193103161705901-2 0000000035098558935P230316000000006380023704151  000000000000000000000000000000000000000000000000000000000000000000000000000000000000000000000000000000000000000000000  A                       0000000000                                                                  000248
1026975776200013300000090350900224669                         0000000035098563218200000000000000000000000009193103161709492-1 00000000350985632182230316000000004780023704152  000000000000000000000000000000000000000000000000000000000000000000000000000000000000000000000000000000000000000000000  A                       0000000000                                                                  000249
