0        04EXTRATO C/C    EMPRESA  TESTE  LTDA                              237BRADESCO S/A   09071501600BPI                                                        09072016            1526804237000001
10285233441000196350900000705000000125668001890                                 070715000000000003340650D                                                           07072016              26804237000002
1028523344100019635090000070500000012566812060063RESGATE MERCADO ABERTO   685716070715000000000000699730C                                             4685716       07072016             026804237000003
1028523344100019635090000070500000012566812060063RESGATE MERCADO ABERTO   294423070715000000000002641020C                                             5294423       07072016             026804237000004
1028523344100019635090000070500000012566812020030LIQUIDACAO DE COBRANCA   022466080715000000000000767942CVALOR DISPONIVEL                             0022466       08072016             026804237000005
1028523344100019635090000070500000012566812060101BX AUTOMATICA APLICACOES 080715080715000000000000024146C                                             0080715       08072016             126804237000006
1028523344100019635090000070500000012566811050036TARIFA REGISTRO COBRANCA 022466080715000000000000000560DNA BAIXA POR COMPENSACAO0000                 0022466  *    08072016             026804237000007
1028523344100019635090000070500000012566811050161TARIFA AUTORIZ COBRANCA  022466080715000000000000000270DEXTRATO DE COBRANCA     0000                 0022466  *    08072016             026804237000008
1028523344100019635090000070500000012566811040907PAGTO ELETRONICO TRIBUTO 221908080715000000000000043141DINTERNET --PE-SEFAZ/IMCS FRO                 5221908  *    08072016             026804237000009
1028523344100019635090000070500000012566811040907PAGTO ELETRONICO TRIBUTO 222334080715000000000000047387DINTERNET --PE-SEFAZ/IMCS FRO                 5222334  *    08072016             026804237000010
1028523344100019635090000070500000012566811171158TRANSF CC PARA CC PJ     815368080715000000000000700248DRODRIGO MARTINS TRANSPORTE                   5815368  *    08072016             026804237000011
1028523344100019635090000070500000012566811051899TARIFA DP5-NET EMPRESA   000001080715000000000000000482DDEPOSITOidentificado                         0000001  *    08072016             026804237000012
1028523344100019635090000070500000012566812020030LIQUIDACAO DE COBRANCA   003509090715000000000000591554CVALOR DISPONIVEL                             0003509       09072016             126804237000013
1028523344100019635090000070500000012566812020030LIQUIDACAO DE COBRANCA   022466090715000000000001707092CVALOR DISPONIVEL                             0022466       09072016             126804237000014
102852334410001963509000007050000001256682                                      090715000000000002298746CP000000000000024046D                                       09072016              26804237000015
90000100001400000000007920880000000006431484                                                                                                                                              26804237000016
