0        04EXTRATO C/C    00000000000841111856    0000                      001BANCO DO BRASIL11041101600BPI15730027000107                                                           1104201104001000001
10215730027000107340900000000000000123456000000000000000000841111856827         080411000000000023849711C00000000000000000000000000000000000000000000000000000000000000000000        0804201104001000002
1021573002700010734090000000000000012345612010605LIB DEP BLQ 1D           453920110411000000000000070000000000152103464000      0000605000001154453920                       000000001104201104001000003
1021573002700010734090000000000000012345612010605LIB DEP BLQ 1D           453938110411000000000000256229000000152103464000      0000605000001154453938                       000000001104201104001000004
1021573002700010734090000000000000012345612010605LIB DEP BLQ 2D           186800110411000000000000001247000000145520977000      0000605000001544186800                       000000001104201104001000005
1021573002700010734090000000000000012345612010605LIB DEP BLQ 2D           811999110411000000000000011500000000107530141000      0000605000001738811999                       000000001104201104001000006
1021573002700010734090000000000000012345612010830DEPOS.ONLINE             102748110411000000000000000500000000114700964000      0000830000002049102748                       000000001104201104001000007
1021573002700010734090000000000000012345612010830DEPOS.ONLINE             768260110411000000000000064000000000160532711000      0000830000002474768260                       000000001104201104001000008
1021573002700010734090000000000000012345612010830DEPOS.ONLINE             296972110411000000000000003400000000112470141000      0000830000002780296972                       000000001104201104001000009
1021573002700010734090000000000000012345612010830DEPOS.ONLINE             800498110411000000000000078394000000152380213000      0000830002131523800498                       000000001104201104001000010
1021573002700010734090000000000000012345612010830DEPOS.ONLINE             900027110411000000000000040000000000990360941000      0000830009412217900027                       000000001104201104001000011
1021573002700010734090000000000000012345612010605LIB DEP BLQ 3D           900492110411000000000000004858000000105291465000      0000605014651052900492                       000000001104201104001000012
1021573002700010734090000000000000012345612010830DEPOS.ONLINE             000279110411000000000000006246000000119306845000      0000830068451193000279                       000000001104201104001000013
1021573002700010734090000000000000012345612130870TRANSF.ON LINE           019443110411000000000000042541000000711912379000      0000870222379000019443                       000000001104201104001000014
1021573002700010734090000000000000012345612130870TRANSF.ON LINE           028928110411000000000000250000000000990150112000      0000870550112000028928                       000000001104201104001000015
1021573002700010734090000000000000012345612130870TRANSF.ON LINE           102222110411000000000000002296000000990156843000      0000870556843000102222                       000000001104201104001000016
1021573002700010734090000000000000012345612050612RECEB FORNEC             200037110411000000000002436329000000141340000000      0000612000000000200037                       000000001104201104001000017
1021573002700010734090000000000000012345612090976TED TRANSF.ELET          100729110411000000000000320743000000141750000000      0000976000000007100729                       000000001104201104001000018
1021573002700010734090000000000000012345612010605LIB DEP BLQ 1D           014652110411000000000000115000000000141370000000      0000605101010600014652                       000000001104201104001000019
1021573002700010734090000000000000012345612010605LIB DEP BLQ 2D           014652110411000000000000045000000000141370000000      0000605101010600014652                       000000001104201104001000020
1021573002700010734090000000000000012345612010605LIB DEP BLQ 3D           014652110411000000000000187600000000141370000000      0000605101010600014652                       000000001104201104001000021
1021573002700010734090000000000000012345612010605LIB DEP BLQ 3D           014652110411000000000001800017000000141370000000      0000605101010600014652                       000000001104201104001000022
1021573002700010734090000000000000012345612010605LIB DEP BLQ 4D           014652110411000000000000013995000000141370000000      0000605101010600014652                       000000001104201104001000023
1021573002700010734090000000000000012345612010605LIB DEP BLQ 4D           014652110411000000000000970196000000141370000000      0000605101010600014652                       000000001104201104001000024
1021573002700010734090000000000000012345612010605LIB DEP BLQ 5D           014652110411000000000000033025000000141370000000      0000605101010600014652                       000000001104201104001000025
1021573002700010734090000000000000012345612020624COBRANCA                 176756110411000000000023226792000000140200000000      0000624101011000176756                       000000001104201104001000026
1021573002700010734090000000000000012345611010103CH PAGO AG               266780110411000000000000399000000000105301465000      0000103000000000266780                       000000001104201104001000027
1021573002700010734090000000000000012345611010103CH PAGO AG               266783110411000000000001287154000000105291465000      0000103000000000266783                       000000001104201104001000028
1021573002700010734090000000000000012345611170470TRANSF.ON LINE           013066110411000000000002534096000000990153409000      0000470550168000013066                       000000001104201104001000029
1021573002700010734090000000000000012345611170470TRANSF.ON LINE           017039110411000000000001553483000000990153409000      0000470550351000017039                       000000001104201104001000030
1021573002700010734090000000000000012345611170470TRANSF.ON LINE           023735110411000000000000343100000000990153409000      0000470550406000023735                       000000001104201104001000031
1021573002700010734090000000000000012345611170470TRANSF.ON LINE           033235110411000000000000031000000000990153409000      0000470550645000033235                       000000001104201104001000032
1021573002700010734090000000000000012345611170470TRANSF.ON LINE           033235110411000000000000186993000000990153409000      0000470550645000033235                       000000001104201104001000033
1021573002700010734090000000000000012345611170470TRANSF.ON LINE           029433110411000000000004872997000000990153409000      0000470550750000029433                       000000001104201104001000034
1021573002700010734090000000000000012345611170470TRANSF.ON LINE           049975110411000000000000231974000000990153409000      0000470550803000049975                       000000001104201104001000035
1021573002700010734090000000000000012345611170470TRANSF.ON LINE           027721110411000000000000317186000000990153409000      0000470550959000027721                       000000001104201104001000036
1021573002700010734090000000000000012345611170470TRANSF.ON LINE           007470110411000000000001633525000000990153409000      0000470551265000007470                       000000001104201104001000037
1021573002700010734090000000000000012345611170470TRANSF.ON LINE           004135110411000000000000270900000000990153409000      0000470551465000004135                       000000001104201104001000038
1021573002700010734090000000000000012345611170470TRANSF.ON LINE           006011110411000000000000057800000000990153409000      0000470551465000006011                       000000001104201104001000039
1021573002700010734090000000000000012345611170470TRANSF.ON LINE           011728110411000000000001305708000000990153409000      0000470551465000011728                       000000001104201104001000040
1021573002700010734090000000000000012345611170470TRANSF.ON LINE           012629110411000000000001600200000000990153409000      0000470551465000012629                       000000001104201104001000041
1021573002700010734090000000000000012345611170470TRANSF.ON LINE           013853110411000000000000456438000000990153409000      0000470551465000013853                       000000001104201104001000042
1021573002700010734090000000000000012345611170470TRANSF.ON LINE           028180110411000000000000557129000000990153409000      0000470551508000028180                       000000001104201104001000043
1021573002700010734090000000000000012345611170470TRANSF.ON LINE           011037110411000000000001353586000000990153409000      0000470551727000011037                       000000001104201104001000044
1021573002700010734090000000000000012345611170470TRANSF.ON LINE           038592110411000000000000714439000000990153409000      0000470551802000038592                       000000001104201104001000045
1021573002700010734090000000000000012345611170470TRANSF.ON LINE           008770110411000000000000746702000000990153409000      0000470552921000008770                       000000001104201104001000046
1021573002700010734090000000000000012345611170470TRANSF.ON LINE           013124110411000000000000296380000000990153409000      0000470553195000013124                       000000001104201104001000047
1021573002700010734090000000000000012345611170470TRANSF.ON LINE           013124110411000000000000200000000000990153409000      0000470553195000013124                       000000001104201104001000048
1021573002700010734090000000000000012345611170470TRANSF.ON LINE           012098110411000000000002335593000000990153409000      0000470553203000012098                       000000001104201104001000049
1021573002700010734090000000000000012345611170470TRANSF.ON LINE           002006110411000000000000148217000000990153409000      0000470553409000002006                       000000001104201104001000050
1021573002700010734090000000000000012345611170470TRANSF.ON LINE           045571110411000000000000448411000000990153409000      0000470553409000045571                       000000001104201104001000051
1021573002700010734090000000000000012345611170470TRANSF.ON LINE           009940110411000000000000503661000000990153409000      0000470553411000009940                       000000001104201104001000052
1021573002700010734090000000000000012345611170470TRANSF.ON LINE           024916110411000000000001621346000000990153409000      0000470553512000024916                       000000001104201104001000053
1021573002700010734090000000000000012345611170470TRANSF.ON LINE           008470110411000000000000974425000000990153409000      0000470554022000008470                       000000001104201104001000054
1021573002700010734090000000000000012345611170470TRANSF.ON LINE           003417110411000000000000004600000000990153409000      0000470554090000003417                       000000001104201104001000055
1021573002700010734090000000000000012345611170470TRANSF.ON LINE           010405110411000000000000857964000000990153409000      0000470554291000010405                       000000001104201104001000056
1021573002700010734090000000000000012345611040250FOLHA PAGAMENTO          000347110411000000000000054807000000131340000000      0000250000000000000347                       000000001104201104001000057
1021573002700010734090000000000000012345611040124COBRANCA                 176756110411000000000000028207000000130200000000      0000124101011000176756                       000000001104201104001000058
1021573002700010734090000000000000012345611040124COBRANCA                 030822110411000000000000000157000000130200000000      0000124101011300030822                       000000001104201104001000059
1021573002700010734090000000000000012345611040375IMPOSTOS                 041100110411000000000000004205000000131050000000      0000375000000000041100                       000000001104201104001000060
1021573002700010734090000000000000012345611040375IMPOSTOS                 041101110411000000000000002989000000131050000000      0000375000000000041101                       000000001104201104001000061
1021573002700010734090000000000000012345611040375IMPOSTOS                 041101110411000000000000000164000000131050000000      0000375000000000041101                       000000001104201104001000062
1021573002700010734090000000000000012345611040375IMPOSTOS                 041102110411000000000000004458000000131050000000      0000375000000000041102                       000000001104201104001000063
1021573002700010734090000000000000012345611040375IMPOSTOS                 041102110411000000000000000218000000131050000000      0000375000000000041102                       000000001104201104001000064
1021573002700010734090000000000000012345611040375IMPOSTOS                 041103110411000000000000001698000000131050000000      0000375000000000041103                       000000001104201104001000065
1021573002700010734090000000000000012345611040375IMPOSTOS                 041103110411000000000000002078000000131050000000      0000375000000000041103                       000000001104201104001000066
1021573002700010734090000000000000012345611040375IMPOSTOS                 041104110411000000000000009605000000131050000000      0000375000000000041104                       000000001104201104001000067
1021573002700010734090000000000000012345611040375IMPOSTOS                 041104110411000000000000002004000000131050000000      0000375000000000041104                       000000001104201104001000068
1021573002700010734090000000000000012345611040375IMPOSTOS                 041105110411000000000000001239000000131050000000      0000375000000000041105                       000000001104201104001000069
1021573002700010734090000000000000012345611040375IMPOSTOS                 041105110411000000000000000198000000131050000000      0000375000000000041105                       000000001104201104001000070
1021573002700010734090000000000000012345611040375IMPOSTOS                 041106110411000000000000001162000000131050000000      0000375000000000041106                       000000001104201104001000071
1021573002700010734090000000000000012345611040375IMPOSTOS                 041106110411000000000000000580000000131050000000      0000375000000000041106                       000000001104201104001000072
1021573002700010734090000000000000012345611040375IMPOSTOS                 041107110411000000000000000404000000131050000000      0000375000000000041107                       000000001104201104001000073
1021573002700010734090000000000000012345611040375IMPOSTOS                 041107110411000000000000002370000000131050000000      0000375000000000041107                       000000001104201104001000074
1021573002700010734090000000000000012345611040375IMPOSTOS                 041108110411000000000000003213000000131050000000      0000375000000000041108                       000000001104201104001000075
1021573002700010734090000000000000012345611040375IMPOSTOS                 041108110411000000000000001909000000131050000000      0000375000000000041108                       000000001104201104001000076
1021573002700010734090000000000000012345611040375IMPOSTOS                 041109110411000000000000006369000000131050000000      0000375000000000041109                       000000001104201104001000077
1021573002700010734090000000000000012345611040375IMPOSTOS                 041109110411000000000000001172000000131050000000      0000375000000000041109                       000000001104201104001000078
1021573002700010734090000000000000012345611040375IMPOSTOS                 041110110411000000000000002195000000131050000000      0000375000000000041110                       000000001104201104001000079
1021573002700010734090000000000000012345611040375IMPOSTOS                 041110110411000000000000003129000000131050000000      0000375000000000041110                       000000001104201104001000080
1021573002700010734090000000000000012345611040375IMPOSTOS                 041111110411000000000000011063000000131050000000      0000375000000000041111                       000000001104201104001000081
1021573002700010734090000000000000012345611040375IMPOSTOS                 041111110411000000000000005146000000131050000000      0000375000000000041111                       000000001104201104001000082
1021573002700010734090000000000000012345611040375IMPOSTOS                 041112110411000000000000004659000000131050000000      0000375000000000041112                       000000001104201104001000083
1021573002700010734090000000000000012345611040375IMPOSTOS                 041112110411000000000000000579000000131050000000      0000375000000000041112                       000000001104201104001000084
1021573002700010734090000000000000012345611040375IMPOSTOS                 041113110411000000000000001645000000131050000000      0000375000000000041113                       000000001104201104001000085
1021573002700010734090000000000000012345611040375IMPOSTOS                 041113110411000000000000001759000000131050000000      0000375000000000041113                       000000001104201104001000086
1021573002700010734090000000000000012345611040375IMPOSTOS                 041114110411000000000000001336000000131050000000      0000375000000000041114                       000000001104201104001000087
1021573002700010734090000000000000012345611040375IMPOSTOS                 041114110411000000000000002756000000131050000000      0000375000000000041114                       000000001104201104001000088
1021573002700010734090000000000000012345611040375IMPOSTOS                 041115110411000000000000004093000000131050000000      0000375000000000041115                       000000001104201104001000089
1021573002700010734090000000000000012345611040375IMPOSTOS                 041115110411000000000000000655000000131050000000      0000375000000000041115                       000000001104201104001000090
1021573002700010734090000000000000012345611040375IMPOSTOS                 041116110411000000000000001278000000131050000000      0000375000000000041116                       000000001104201104001000091
1021573002700010734090000000000000012345611040375IMPOSTOS                 041116110411000000000000002745000000131050000000      0000375000000000041116                       000000001104201104001000092
1021573002700010734090000000000000012345611040375IMPOSTOS                 041117110411000000000000003585000000131050000000      0000375000000000041117                       000000001104201104001000093
1021573002700010734090000000000000012345611040375IMPOSTOS                 041117110411000000000000001370000000131050000000      0000375000000000041117                       000000001104201104001000094
1021573002700010734090000000000000012345611040375IMPOSTOS                 041118110411000000000000002081000000131050000000      0000375000000000041118                       000000001104201104001000095
1021573002700010734090000000000000012345611040375IMPOSTOS                 041118110411000000000000002215000000131050000000      0000375000000000041118                       000000001104201104001000096
1021573002700010734090000000000000012345611040375IMPOSTOS                 041119110411000000000000000321000000131050000000      0000375000000000041119                       000000001104201104001000097
1021573002700010734090000000000000012345611040375IMPOSTOS                 041119110411000000000000005160000000131050000000      0000375000000000041119                       000000001104201104001000098
1021573002700010734090000000000000012345611040375IMPOSTOS                 041120110411000000000000001015000000131050000000      0000375000000000041120                       000000001104201104001000099
1021573002700010734090000000000000012345611040375IMPOSTOS                 041120110411000000000000016499000000131050000000      0000375000000000041120                       000000001104201104001000100
1021573002700010734090000000000000012345611040375IMPOSTOS                 041121110411000000000000001727000000131050000000      0000375000000000041121                       000000001104201104001000101
1021573002700010734090000000000000012345611040375IMPOSTOS                 041121110411000000000000000225000000131050000000      0000375000000000041121                       000000001104201104001000102
1021573002700010734090000000000000012345611040375IMPOSTOS                 041122110411000000000000000980000000131050000000      0000375000000000041122                       000000001104201104001000103
1021573002700010734090000000000000012345611040375IMPOSTOS                 041122110411000000000000001593000000131050000000      0000375000000000041122                       000000001104201104001000104
1021573002700010734090000000000000012345611040375IMPOSTOS                 041123110411000000000000002651000000131050000000      0000375000000000041123                       000000001104201104001000105
1021573002700010734090000000000000012345611040375IMPOSTOS                 041123110411000000000000000871000000131050000000      0000375000000000041123                       000000001104201104001000106
1021573002700010734090000000000000012345611040375IMPOSTOS                 041124110411000000000000001154000000131050000000      0000375000000000041124                       000000001104201104001000107
1021573002700010734090000000000000012345611040375IMPOSTOS                 041124110411000000000000001497000000131050000000      0000375000000000041124                       000000001104201104001000108
1021573002700010734090000000000000012345611040375IMPOSTOS                 041125110411000000000000001486000000131050000000      0000375000000000041125                       000000001104201104001000109
1021573002700010734090000000000000012345611040375IMPOSTOS                 041125110411000000000000002409000000131050000000      0000375000000000041125                       000000001104201104001000110
1021573002700010734090000000000000012345611040375IMPOSTOS                 041126110411000000000000000931000000131050000000      0000375000000000041126                       000000001104201104001000111
1021573002700010734090000000000000012345611040375IMPOSTOS                 041126110411000000000000006014000000131050000000      0000375000000000041126                       000000001104201104001000112
1021573002700010734090000000000000012345611040375IMPOSTOS                 041127110411000000000000004255000000131050000000      0000375000000000041127                       000000001104201104001000113
1021573002700010734090000000000000012345611040375IMPOSTOS                 041127110411000000000000001249000000131050000000      0000375000000000041127                       000000001104201104001000114
1021573002700010734090000000000000012345611040375IMPOSTOS                 041128110411000000000000002499000000131050000000      0000375000000000041128                       000000001104201104001000115
1021573002700010734090000000000000012345611040375IMPOSTOS                 041128110411000000000000000113000000131050000000      0000375000000000041128                       000000001104201104001000116
1021573002700010734090000000000000012345611040375IMPOSTOS                 041129110411000000000000002114000000131050000000      0000375000000000041129                       000000001104201104001000117
1021573002700010734090000000000000012345611040375IMPOSTOS                 041129110411000000000000000131000000131050000000      0000375000000000041129                       000000001104201104001000118
1021573002700010734090000000000000012345611040375IMPOSTOS                 041130110411000000000000001414000000131050000000      0000375000000000041130                       000000001104201104001000119
1021573002700010734090000000000000012345611040375IMPOSTOS                 041130110411000000000000000449000000131050000000      0000375000000000041130                       000000001104201104001000120
1021573002700010734090000000000000012345611040375IMPOSTOS                 041131110411000000000000002187000000131050000000      0000375000000000041131                       000000001104201104001000121
1021573002700010734090000000000000012345611040375IMPOSTOS                 041131110411000000000000000965000000131050000000      0000375000000000041131                       000000001104201104001000122
1021573002700010734090000000000000012345611040375IMPOSTOS                 041132110411000000000000005754000000131050000000      0000375000000000041132                       000000001104201104001000123
1021573002700010734090000000000000012345611040375IMPOSTOS                 041132110411000000000000002334000000131050000000      0000375000000000041132                       000000001104201104001000124
1021573002700010734090000000000000012345611040375IMPOSTOS                 041133110411000000000000001597000000131050000000      0000375000000000041133                       000000001104201104001000125
1021573002700010734090000000000000012345611040375IMPOSTOS                 041133110411000000000000023163000000131050000000      0000375000000000041133                       000000001104201104001000126
1021573002700010734090000000000000012345611040375IMPOSTOS                 041134110411000000000000001149000000131050000000      0000375000000000041134                       000000001104201104001000127
1021573002700010734090000000000000012345611040375IMPOSTOS                 041134110411000000000000003956000000131050000000      0000375000000000041134                       000000001104201104001000128
1021573002700010734090000000000000012345611040375IMPOSTOS                 041135110411000000000000002474000000131050000000      0000375000000000041135                       000000001104201104001000129
1021573002700010734090000000000000012345611040375IMPOSTOS                 041135110411000000000000022873000000131050000000      0000375000000000041135                       000000001104201104001000130
1021573002700010734090000000000000012345611040375IMPOSTOS                 041136110411000000000000004337000000131050000000      0000375000000000041136                       000000001104201104001000131
1021573002700010734090000000000000012345611040375IMPOSTOS                 041136110411000000000000004260000000131050000000      0000375000000000041136                       000000001104201104001000132
1021573002700010734090000000000000012345611040375IMPOSTOS                 041137110411000000000000002710000000131050000000      0000375000000000041137                       000000001104201104001000133
1021573002700010734090000000000000012345611040375IMPOSTOS                 041137110411000000000000000616000000131050000000      0000375000000000041137                       000000001104201104001000134
1021573002700010734090000000000000012345611040375IMPOSTOS                 041138110411000000000000008114000000131050000000      0000375000000000041138                       000000001104201104001000135
1021573002700010734090000000000000012345611040375IMPOSTOS                 041138110411000000000000017207000000131050000000      0000375000000000041138                       000000001104201104001000136
1021573002700010734090000000000000012345611040375IMPOSTOS                 041139110411000000000000000646000000131050000000      0000375000000000041139                       000000001104201104001000137
1021573002700010734090000000000000012345611040375IMPOSTOS                 041139110411000000000000000666000000131050000000      0000375000000000041139                       000000001104201104001000138
1021573002700010734090000000000000012345611040375IMPOSTOS                 041140110411000000000000005342000000131050000000      0000375000000000041140                       000000001104201104001000139
1021573002700010734090000000000000012345611040375IMPOSTOS                 041140110411000000000000000947000000131050000000      0000375000000000041140                       000000001104201104001000140
1021573002700010734090000000000000012345611040109PAG TITULO               041141110411000000000000006810000000131050000000      0000109000000000041141                       000000001104201104001000141
1021573002700010734090000000000000012345611040375IMPOSTOS                 041141110411000000000000002195000000131050000000      0000375000000000041141                       000000001104201104001000142
1021573002700010734090000000000000012345611040375IMPOSTOS                 041142110411000000000000007228000000131050000000      0000375000000000041142                       000000001104201104001000143
1021573002700010734090000000000000012345611040375IMPOSTOS                 041142110411000000000000000794000000131050000000      0000375000000000041142                       000000001104201104001000144
1021573002700010734090000000000000012345611040375IMPOSTOS                 041143110411000000000000000487000000131050000000      0000375000000000041143                       000000001104201104001000145
1021573002700010734090000000000000012345611040375IMPOSTOS                 041143110411000000000000016263000000131050000000      0000375000000000041143                       000000001104201104001000146
1021573002700010734090000000000000012345611040375IMPOSTOS                 041144110411000000000000000107000000131050000000      0000375000000000041144                       000000001104201104001000147
1021573002700010734090000000000000012345611040375IMPOSTOS                 041144110411000000000000010781000000131050000000      0000375000000000041144                       000000001104201104001000148
1021573002700010734090000000000000012345611040375IMPOSTOS                 041145110411000000000000001662000000131050000000      0000375000000000041145                       000000001104201104001000149
1021573002700010734090000000000000012345611040375IMPOSTOS                 041145110411000000000000017054000000131050000000      0000375000000000041145                       000000001104201104001000150
1021573002700010734090000000000000012345611040375IMPOSTOS                 041146110411000000000000003479000000131050000000      0000375000000000041146                       000000001104201104001000151
1021573002700010734090000000000000012345611040375IMPOSTOS                 041146110411000000000000001045000000131050000000      0000375000000000041146                       000000001104201104001000152
1021573002700010734090000000000000012345611040375IMPOSTOS                 041147110411000000000000003166000000131050000000      0000375000000000041147                       000000001104201104001000153
1021573002700010734090000000000000012345611040375IMPOSTOS                 041147110411000000000000019096000000131050000000      0000375000000000041147                       000000001104201104001000154
1021573002700010734090000000000000012345611040375IMPOSTOS                 041148110411000000000000000871000000131050000000      0000375000000000041148                       000000001104201104001000155
1021573002700010734090000000000000012345611040375IMPOSTOS                 041148110411000000000000002487000000131050000000      0000375000000000041148                       000000001104201104001000156
1021573002700010734090000000000000012345611040375IMPOSTOS                 041149110411000000000000000986000000131050000000      0000375000000000041149                       000000001104201104001000157
1021573002700010734090000000000000012345611040375IMPOSTOS                 041149110411000000000000068948000000131050000000      0000375000000000041149                       000000001104201104001000158
1021573002700010734090000000000000012345611040375IMPOSTOS                 041150110411000000000000001144000000131050000000      0000375000000000041150                       000000001104201104001000159
1021573002700010734090000000000000012345611040375IMPOSTOS                 041150110411000000000000004544000000131050000000      0000375000000000041150                       000000001104201104001000160
1021573002700010734090000000000000012345611040375IMPOSTOS                 041151110411000000000000001218000000131050000000      0000375000000000041151                       000000001104201104001000161
1021573002700010734090000000000000012345611040375IMPOSTOS                 041151110411000000000000001234000000131050000000      0000375000000000041151                       000000001104201104001000162
1021573002700010734090000000000000012345611040375IMPOSTOS                 041152110411000000000000000493000000131050000000      0000375000000000041152                       000000001104201104001000163
1021573002700010734090000000000000012345611040375IMPOSTOS                 041152110411000000000000001036000000131050000000      0000375000000000041152                       000000001104201104001000164
1021573002700010734090000000000000012345611040375IMPOSTOS                 041153110411000000000000007591000000131050000000      0000375000000000041153                       000000001104201104001000165
1021573002700010734090000000000000012345611040375IMPOSTOS                 041153110411000000000000001250000000131050000000      0000375000000000041153                       000000001104201104001000166
1021573002700010734090000000000000012345611040375IMPOSTOS                 041154110411000000000000003466000000131050000000      0000375000000000041154                       000000001104201104001000167
1021573002700010734090000000000000012345611040375IMPOSTOS                 041154110411000000000000003054000000131050000000      0000375000000000041154                       000000001104201104001000168
1021573002700010734090000000000000012345611040375IMPOSTOS                 041155110411000000000000008263000000131050000000      0000375000000000041155                       000000001104201104001000169
1021573002700010734090000000000000012345611040375IMPOSTOS                 041155110411000000000000004336000000131050000000      0000375000000000041155                       000000001104201104001000170
1021573002700010734090000000000000012345611040375IMPOSTOS                 041156110411000000000000006665000000131050000000      0000375000000000041156                       000000001104201104001000171
1021573002700010734090000000000000012345611040375IMPOSTOS                 041156110411000000000000000491000000131050000000      0000375000000000041156                       000000001104201104001000172
1021573002700010734090000000000000012345611040375IMPOSTOS                 041157110411000000000000008359000000131050000000      0000375000000000041157                       000000001104201104001000173
1021573002700010734090000000000000012345611040375IMPOSTOS                 041157110411000000000000002346000000131050000000      0000375000000000041157                       000000001104201104001000174
1021573002700010734090000000000000012345611040375IMPOSTOS                 041158110411000000000000003265000000131050000000      0000375000000000041158                       000000001104201104001000175
1021573002700010734090000000000000012345611040375IMPOSTOS                 041158110411000000000000011186000000131050000000      0000375000000000041158                       000000001104201104001000176
1021573002700010734090000000000000012345611040375IMPOSTOS                 041159110411000000000000003123000000131050000000      0000375000000000041159                       000000001104201104001000177
1021573002700010734090000000000000012345611040375IMPOSTOS                 041159110411000000000000040369000000131050000000      0000375000000000041159                       000000001104201104001000178
1021573002700010734090000000000000012345611040375IMPOSTOS                 041160110411000000000000010535000000131050000000      0000375000000000041160                       000000001104201104001000179
1021573002700010734090000000000000012345611040375IMPOSTOS                 041160110411000000000000019914000000131050000000      0000375000000000041160                       000000001104201104001000180
1021573002700010734090000000000000012345611040375IMPOSTOS                 041161110411000000000000000460000000131050000000      0000375000000000041161                       000000001104201104001000181
1021573002700010734090000000000000012345611040375IMPOSTOS                 041161110411000000000000032321000000131050000000      0000375000000000041161                       000000001104201104001000182
1021573002700010734090000000000000012345611040375IMPOSTOS                 041162110411000000000000001810000000131050000000      0000375000000000041162                       000000001104201104001000183
1021573002700010734090000000000000012345611040375IMPOSTOS                 041162110411000000000000005349000000131050000000      0000375000000000041162                       000000001104201104001000184
1021573002700010734090000000000000012345611040375IMPOSTOS                 041163110411000000000000001292000000131050000000      0000375000000000041163                       000000001104201104001000185
1021573002700010734090000000000000012345611040375IMPOSTOS                 041163110411000000000000002975000000131050000000      0000375000000000041163                       000000001104201104001000186
1021573002700010734090000000000000012345611040375IMPOSTOS                 041164110411000000000000040008000000131050000000      0000375000000000041164                       000000001104201104001000187
1021573002700010734090000000000000012345611040375IMPOSTOS                 041164110411000000000000000674000000131050000000      0000375000000000041164                       000000001104201104001000188
1021573002700010734090000000000000012345611040375IMPOSTOS                 041165110411000000000000002474000000131050000000      0000375000000000041165                       000000001104201104001000189
1021573002700010734090000000000000012345611040375IMPOSTOS                 041165110411000000000000001577000000131050000000      0000375000000000041165                       000000001104201104001000190
1021573002700010734090000000000000012345611040375IMPOSTOS                 041166110411000000000000000386000000131050000000      0000375000000000041166                       000000001104201104001000191
1021573002700010734090000000000000012345611040375IMPOSTOS                 041166110411000000000000000542000000131050000000      0000375000000000041166                       000000001104201104001000192
1021573002700010734090000000000000012345611040375IMPOSTOS                 041167110411000000000000002276000000131050000000      0000375000000000041167                       000000001104201104001000193
1021573002700010734090000000000000012345611040375IMPOSTOS                 041167110411000000000000003788000000131050000000      0000375000000000041167                       000000001104201104001000194
1021573002700010734090000000000000012345611040375IMPOSTOS                 041168110411000000000000004258000000131050000000      0000375000000000041168                       000000001104201104001000195
1021573002700010734090000000000000012345611040375IMPOSTOS                 041168110411000000000000003575000000131050000000      0000375000000000041168                       000000001104201104001000196
1021573002700010734090000000000000012345611040375IMPOSTOS                 041169110411000000000000001968000000131050000000      0000375000000000041169                       000000001104201104001000197
1021573002700010734090000000000000012345611040375IMPOSTOS                 041169110411000000000000000336000000131050000000      0000375000000000041169                       000000001104201104001000198
1021573002700010734090000000000000012345611040375IMPOSTOS                 041170110411000000000000003316000000131050000000      0000375000000000041170                       000000001104201104001000199
1021573002700010734090000000000000012345611040375IMPOSTOS                 041170110411000000000000002333000000131050000000      0000375000000000041170                       000000001104201104001000200
1021573002700010734090000000000000012345611040375IMPOSTOS                 041171110411000000000000003811000000131050000000      0000375000000000041171                       000000001104201104001000201
1021573002700010734090000000000000012345611040375IMPOSTOS                 041171110411000000000000000225000000131050000000      0000375000000000041171                       000000001104201104001000202
1021573002700010734090000000000000012345611040375IMPOSTOS                 041172110411000000000000000807000000131050000000      0000375000000000041172                       000000001104201104001000203
1021573002700010734090000000000000012345611040375IMPOSTOS                 041172110411000000000000001573000000131050000000      0000375000000000041172                       000000001104201104001000204
1021573002700010734090000000000000012345611040375IMPOSTOS                 041173110411000000000000001491000000131050000000      0000375000000000041173                       000000001104201104001000205
1021573002700010734090000000000000012345611040375IMPOSTOS                 041173110411000000000000002866000000131050000000      0000375000000000041173                       000000001104201104001000206
1021573002700010734090000000000000012345611040375IMPOSTOS                 041174110411000000000000001048000000131050000000      0000375000000000041174                       000000001104201104001000207
1021573002700010734090000000000000012345611040375IMPOSTOS                 041174110411000000000000001366000000131050000000      0000375000000000041174                       000000001104201104001000208
1021573002700010734090000000000000012345611040375IMPOSTOS                 041175110411000000000000004024000000131050000000      0000375000000000041175                       000000001104201104001000209
1021573002700010734090000000000000012345611040375IMPOSTOS                 041175110411000000000000001149000000131050000000      0000375000000000041175                       000000001104201104001000210
1021573002700010734090000000000000012345611040375IMPOSTOS                 041176110411000000000000002829000000131050000000      0000375000000000041176                       000000001104201104001000211
1021573002700010734090000000000000012345611040375IMPOSTOS                 041176110411000000000000001851000000131050000000      0000375000000000041176                       000000001104201104001000212
1021573002700010734090000000000000012345611040375IMPOSTOS                 041177110411000000000000007021000000131050000000      0000375000000000041177                       000000001104201104001000213
1021573002700010734090000000000000012345611040375IMPOSTOS                 041177110411000000000000000166000000131050000000      0000375000000000041177                       000000001104201104001000214
1021573002700010734090000000000000012345611040375IMPOSTOS                 041178110411000000000000008875000000131050000000      0000375000000000041178                       000000001104201104001000215
1021573002700010734090000000000000012345611040375IMPOSTOS                 041178110411000000000000000460000000131050000000      0000375000000000041178                       000000001104201104001000216
1021573002700010734090000000000000012345611040375IMPOSTOS                 041179110411000000000000001312000000131050000000      0000375000000000041179                       000000001104201104001000217
1021573002700010734090000000000000012345611040375IMPOSTOS                 041180110411000000000000000975000000131050000000      0000375000000000041180                       000000001104201104001000218
1021573002700010734090000000000000012345611040375IMPOSTOS                 041181110411000000000000010086000000131050000000      0000375000000000041181                       000000001104201104001000219
1021573002700010734090000000000000012345611040375IMPOSTOS                 041182110411000000000000006222000000131050000000      0000375000000000041182                       000000001104201104001000220
1021573002700010734090000000000000012345611040375IMPOSTOS                 041183110411000000000000002474000000131050000000      0000375000000000041183                       000000001104201104001000221
1021573002700010734090000000000000012345611040375IMPOSTOS                 041184110411000000000000000940000000131050000000      0000375000000000041184                       000000001104201104001000222
1021573002700010734090000000000000012345611040375IMPOSTOS                 041185110411000000000000004777000000131050000000      0000375000000000041185                       000000001104201104001000223
1021573002700010734090000000000000012345611040375IMPOSTOS                 041186110411000000000000002894000000131050000000      0000375000000000041186                       000000001104201104001000224
1021573002700010734090000000000000012345611040375IMPOSTOS                 041187110411000000000000002220000000131050000000      0000375000000000041187                       000000001104201104001000225
1021573002700010734090000000000000012345611040375IMPOSTOS                 041188110411000000000000001339000000131050000000      0000375000000000041188                       000000001104201104001000226
1021573002700010734090000000000000012345611040375IMPOSTOS                 041189110411000000000000015899000000131050000000      0000375000000000041189                       000000001104201104001000227
1021573002700010734090000000000000012345611040375IMPOSTOS                 041190110411000000000000002899000000131050000000      0000375000000000041190                       000000001104201104001000228
1021573002700010734090000000000000012345611040375IMPOSTOS                 041191110411000000000000005049000000131050000000      0000375000000000041191                       000000001104201104001000229
1021573002700010734090000000000000012345611040375IMPOSTOS                 041192110411000000000000007299000000131050000000      0000375000000000041192                       000000001104201104001000230
1021573002700010734090000000000000012345611040375IMPOSTOS                 041193110411000000000000003309000000131050000000      0000375000000000041193                       000000001104201104001000231
1021573002700010734090000000000000012345611040375IMPOSTOS                 041194110411000000000000003638000000131050000000      0000375000000000041194                       000000001104201104001000232
1021573002700010734090000000000000012345611040375IMPOSTOS                 041195110411000000000000000769000000131050000000      0000375000000000041195                       000000001104201104001000233
1021573002700010734090000000000000012345611040375IMPOSTOS                 041196110411000000000000008878000000131050000000      0000375000000000041196                       000000001104201104001000234
1021573002700010734090000000000000012345611040375IMPOSTOS                 041197110411000000000000001123000000131050000000      0000375000000000041197                       000000001104201104001000235
1021573002700010734090000000000000012345611040375IMPOSTOS                 041198110411000000000000001290000000131050000000      0000375000000000041198                       000000001104201104001000236
1021573002700010734090000000000000012345611040375IMPOSTOS                 041199110411000000000000002920000000131050000000      0000375000000000041199                       000000001104201104001000237
1021573002700010734090000000000000012345611050435TAR PACOTE SERV          914385110411000000000000010400000000131130000000      0000435801011105914385                       000000001104201104001000238
1021573002700010734090000000000000012345611050170TAR PROC MALOTE          221076110411000000000000000500000000131130000000      0000170811011300221076                       000000001104201104001000239
1021573002700010734090000000000000012345611040165TAR CTA GARANT           271525110411000000000000002500000000131130000000      0000165811011300271525                       000000001104201104001000240
1021573002700010734090000000000000012345611040165TAR CTA GARANT           275743110411000000000000002500000000131130000000      0000165811011300275743                       000000001104201104001000241
1021573002700010734090000000000000012345611010102CHEQ COMPENSADO          266746110411000000000000100000000000130971915756      0000102000000000266746                       000000001104201104001000242
1021573002700010734090000000000000012345611010102CHEQ COMPENSADO          266784110411000000000000300037000000130971915341      0000102000000000266784                       000000001104201104001000243
1021573002700010734090000000000000012345620000000000000000000000000000000000    110411000000000024675193CF0000000000000000000000000000000000000000000000000005000000000000000000000  1104201104001000244
90000100024100000000291544260000000029979908                                                                                                                                                 04001000245
