02RETORNO01COBRANCA       34096000151025000000EMPRESA TESTE LTDA            001BANCO DO BRASIL1502160001553                      000002977000423383  1906042                                                                                                                                                                                                                                              000001
70000000000000000340960004520251906042                         1906042000096506120000100AI 05130000000000 17021502161704156-1                     160216000000021582100101082010000000000229000000000000000000000000000000000000000000000000000000000000000000000000000000000000000000000000000000000000000000000000000000022910000000000000          0000000000000000000000000000000000000000000000001000000002
70000000000000000340960004520251906042                         1906042000095271320000000   05100000000000 17981502161684460-2                     040216000000004848400100248000000000000000000000001233000000000000000000000000000000000000000000000000000000000000000000000000000000000000000000000000000000000000000001233010000000000000          0000000000000000000000000000000000000000000000000000000003
70000000000000000340960004520251906042                         1906042000095252920000000   05120000000000 17231502161684193-1                     020116000000006190000139365010000000000192000000000000000000000000000000000000000000000000000000000000000000000000000000000000000000000000000000000000000000000000000000019210000000000000          0000000000000000000000000000000000000000000000000000000004
70000000000000000340960004520251906042                         1906042000095253020000000   05130000000000 17231502161684193-2                     010216000000006191100139365010000000000192000000000000000000000000000000000000000000000000000000000000000000000000000000000000000000000000000000000000000000000000000000019210000000000000          0000000000000000000000000000000000000000000000000000000005
70000000000000000340960004520251906042                         1906042000095253120000000   05120000000000 17231502161684194-1                     181215000000008045300139365010000000000192000000000000000000000000000000000000000000000000000000000000000000000000000000000000000000000000000000000000000000000000000000019210000000000000          0000000000000000000000000000000000000000000000000000000006
70000000000000000340960004520251906042                         1906042000095253220000000   05120000000000 17231502161684194-2                     020116000000004410000139365010000000000192000000000000000000000000000000000000000000000000000000000000000000000000000000000000000000000000000000000000000000000000000000019210000000000000          0000000000000000000000000000000000000000000000000000000007
70000000000000000340960004520251906042                         1906042000095253420000000   05130000000000 17231502161684194-4                     010216000000004410000139365010000000000192000000000000000000000000000000000000000000000000000000000000000000000000000000000000000000000000000000000000000000000000000000019210000000000000          0000000000000000000000000000000000000000000000000000000008
70000000000000000340960004520251906042                         1906042000095271320000000   05130000000000 17231502161684460-2                     040216000000004848400100248010000000000192000000000000000000000000000000000000000000000000000000000000000000000000000000000000000000000000000000000000000000000000000000019210000000000000          0000000000000000000000000000000000000000000000000000000009
70000000000000000340960004520251906042                         1906042000094112320000001AI 05130000000000 17061502161666882-4                     150216000000065306800140983011602160000000000000000000000000000000000000000000000000000000000000000000000000000000653068000000000000000000000000000000000000000000000065306820000000000000          0000000000000000000000000000000000000000000000001004000010
70000000000000000340960004520251906042                         1906042000094486120000201AI 05130000000000 17061502161672525-4                     130216000000011521110414490011602160000000000000000000000000000000000000000000000000000000000000000000000000000000115211000000000000000000000000000000000000000000000011521120000000000000          0000000000000000000000000000000000000000000000001010000011
70000000000000000340960004520251906042                         1906042000094560720000101AI 05130000000000 17061502161673451-4                     140216000000005701010432610011602160000000000000000000000000000000000000000000000000000000000000000000000000000000057010000000000000000000000000000000000000000000000005701020000000000000          0000000000000000000000000000000000000000000000001010000012
70000000000000000340960004520251906042                         1906042000094709720002409AI 05120000000000 17151502161675825-5                     220116000000005339100101880011602160000000000000000000000000000000000000000000000000000000000000000000000000000000062103000000000000000000000087120000000000000000000006210320000000000000          0000000000000000000000000000000000000000000000001011000013
70000000000000000340960004520251906042                         1906042000094734420002209AI 05120000000000 17151502161676272-3                     240116000000004688700134770011602160000000000000000000000000000000000000000000000000000000000000000000000000000000046887000000000000000000000000000000000000000000000004688720000000000000          0000000000000000000000000000000000000000000000001011000014
70000000000000000340960004520251906042                         1906042000094789520000201AI 05150000000000 17061502161677143-6                     130216000000012618223735700011602160000000000000000000000000000000000000000000000000000000000000000000000000000000126182000000000000000000000000000000000000000000000012618220000000000000          0000000000000000000000000000000000000000000000001010000015
70000000000000000340960004520251906042                         1906042000094862020000101AI 05130000000000 17061502161676582-5                     140216000000024078923719290011602160000000000000000000000000000000000000000000000000000000000000000000000000000000240789000000000000000000000000000000000000000000000024078920000000000000          0000000000000000000000000000000000000000000000001010000016
70000000000000000340960004520251906042                         1906042000094862320000101AI 05130000000000 17061502161676581-5                     140216000000011415703332980011602160000000000000000000000000000000000000000000000000000000000000000000000000000000114157000000000000000000000000000000000000000000000011415720000000000000          0000000000000000000000000000000000000000000000001010000017
70000000000000000340960004520251906042                         1906042000094955420001001AI 05130000000000 17061502161679522-3                     050216000000012838675624280011602160000000000000000000000000000000000000000000000000000000000000000000000000000000130526000000000214000000000000000000000000000000000013052620000000000000          0000000000000000000000000000000000000000000000001010000018
70000000000000000340960004520251906042                         1906042000095001120001001AI 05130000000000 17061502161680170-3                     050216000000007147800135068011602160000000000000000000000000000000000000000000000000000000000000000000000000000000072668000000000119000000000000000000000000000000000007266820000000000000          0000000000000000000000000000000000000000000000001001000019
70000000000000000340960004520251906042                         1906042000095018320001001AI 05130000000000 17061502161680388-3                     050216000000012255200127111011602160000000000000000000000000000000000000000000000000000000000000000000000000000000124592000000000204000000000000000000000000000000000012459220000000000000          0000000000000000000000000000000000000000000000001008000020
70000000000000000340960004520251906042                         1906042000095090620000401AI 05130000000000 17061502161681693-5                     110216000000005051734155610011602160000000000000000000000000000000000000000000000000000000000000000000000000000000050853000000000033600000000000000000000000000000000005085320000000000000          0000000000000000000000000000000000000000000000001010000021
70000000000000000340960004520251906042                         1906042000095090920000401AI 05130000000000 17061502161681694-3                     110216000000004621734155610011602160000000000000000000000000000000000000000000000000000000000000000000000000000000046525000000000030800000000000000000000000000000000004652520000000000000          0000000000000000000000000000000000000000000000001010000022
70000000000000000340960004520251906042                         1906042000095105820000401AI 05130000000000 17061502161681865-3                     110216000000007836223717720011602160000000000000000000000000000000000000000000000000000000000000000000000000000000078886000000000052400000000000000000000000000000000007888620000000000000          0000000000000000000000000000000000000000000000001010000023
70000000000000000340960004520251906042                         1906042000095111720000401AI 05130000000000 17061502161681919-5                     110216000000006810600144873011602160000000000000000000000000000000000000000000000000000000000000000000000000000000068562000000000045600000000000000000000000000000000006856220000000000000          0000000000000000000000000000000000000000000000001007000024
70000000000000000340960004520251906042                         1906042000095114620000401AI 05130000000000 17061502161681935-4                     110216000000004429300124333011602160000000000000000000000000000000000000000000000000000000000000000000000000000000044589000000000029600000000000000000000000000000000004458920000000000000          0000000000000000000000000000000000000000000000001008000025
70000000000000000340960004520251906042                         1906042000095118120000301AI 05130000000000 17061502161682008-3                     120216000000006006704107600011602160000000000000000000000000000000000000000000000000000000000000000000000000000000060430000000000036300000000000000000000000000000000006043020000000000000          0000000000000000000000000000000000000000000000001010000026
70000000000000000340960004520251906042                         1906042000095131820000301AI 05130000000000 17061502161682266-3                     120216000000006876400136889011602160000000000000000000000000000000000000000000000000000000000000000000000000000000069109000000000034500000000000000000000000000000000006910920000000000000          0000000000000000000000000000000000000000000000001008000027
70000000000000000340960004520251906042                         1906042000095140720000401AI 05130000000000 17061502161682343-3                     110216000000010929800139373011602160000000000000000000000000000000000000000000000000000000000000000000000000000000110026000000000072800000000000000000000000000000000011002620000000000000          0000000000000000000000000000000000000000000000001006000028
70000000000000000340960004520251906042                         1906042000095144620000401AI 05130000000000 17061502161682365-3                     110216000000005715410433840011602160000000000000000000000000000000000000000000000000000000000000000000000000000000057534000000000038000000000000000000000000000000000005753420000000000000          0000000000000000000000000000000000000000000000001010000029
70000000000000000340960004520251906042                         1906042000095160020000301AI 05130000000000 17061502161682711-5                     120216000000009079200144989011602160000000000000000000000000000000000000000000000000000000000000000000000000000000091245000000000045300000000000000000000000000000000009124520000000000000          0000000000000000000000000000000000000000000000001008000030
70000000000000000340960004520251906042                         1906042000095194620000301AI 05130000000000 17061502161682968-3                     12021600000000506720011480X011602160000000000000000000000000000000000000000000000000000000000000000000000000000000050924000000000025200000000000000000000000000000000005092420000000000000          0000000000000000000000000000000000000000000000001001000031
70000000000000000340960004520251906042                         1906042000095197320000301AI 05150000000000 17061502161682983-3                     120216000000018621723721780011602160000000000000000000000000000000000000000000000000000000000000000000000000000000187147000000000093000000000000000000000000000000000018714720000000000000          0000000000000000000000000000000000000000000000001010000032
70000000000000000340960004520251906042                         1906042000095197820000301AI 05130000000000 17061502161682985-5                     12021600000000478230013813X011602160000000000000000000000000000000000000000000000000000000000000000000000000000000048063000000000024000000000000000000000000000000000004806320000000000000          0000000000000000000000000000000000000000000000001001000033
70000000000000000340960004520251906042                         1906042000095202420000301AI 05130000000000 17061502161683047-5                     120216000000010105275642120011602160000000000000000000000000000000000000000000000000000000000000000000000000000000101556000000000050400000000000000000000000000000000010155620000000000000          0000000000000000000000000000000000000000000000001010000034
70000000000000000340960004520251906042                         1906042000095205120000301AI 05130000000000 17061502161683068-3                     120216000000004908400107447011602160000000000000000000000000000000000000000000000000000000000000000000000000000000049330000000000024600000000000000000000000000000000004933020000000000000          0000000000000000000000000000000000000000000000001007000035
70000000000000000340960004520251906042                         1906042000095208020000101AI 05130000000000 17061502161683126-4                     140216000000015871434131080011602160000000000000000000000000000000000000000000000000000000000000000000000000000000158714000000000000000000000000000000000000000000000015871420000000000000          0000000000000000000000000000000000000000000000001010000036
70000000000000000340960004520251906042                         1906042000095208420000101AI 05130000000000 17061502161683129-3                     140216000000005892323706320011602160000000000000000000000000000000000000000000000000000000000000000000000000000000058923000000000000000000000000000000000000000000000005892320000000000000          0000000000000000000000000000000000000000000000001010000037
70000000000000000340960004520251906042                         1906042000095208720000101AI 05130000000000 17061502161683130-3                     140216000000004499923706320011602160000000000000000000000000000000000000000000000000000000000000000000000000000000044999000000000000000000000000000000000000000000000004499920000000000000          0000000000000000000000000000000000000000000000001010000038
70000000000000000340960004520251906042                         1906042000095209020000101AI 05130000000000 17061502161683131-3                     140216000000010778110401360011602160000000000000000000000000000000000000000000000000000000000000000000000000000000107781000000000000000000000000000000000000000000000010778120000000000000          0000000000000000000000000000000000000000000000001010000039
70000000000000000340960004520251906042                         1906042000095209320000101AI 05130000000000 17061502161683132-3                     140216000000005689710401360011602160000000000000000000000000000000000000000000000000000000000000000000000000000000056897000000000000000000000000000000000000000000000005689720000000000000          0000000000000000000000000000000000000000000000001010000040
70000000000000000340960004520251906042                         1906042000095209820000101AI 05130000000000 17061502161683133-5                     140216000000011562510401360011602160000000000000000000000000000000000000000000000000000000000000000000000000000000115625000000000000000000000000000000000000000000000011562520000000000000          0000000000000000000000000000000000000000000000001010000041
70000000000000000340960004520251906042                         1906042000095210320000101AI 05130000000000 17061502161683134-5                     140216000000015876410401360011602160000000000000000000000000000000000000000000000000000000000000000000000000000000158764000000000000000000000000000000000000000000000015876420000000000000          0000000000000000000000000000000000000000000000001010000042
70000000000000000340960004520251906042                         1906042000095210820000101AI 05130000000000 17061502161683136-5                     140216000000005755010401360011602160000000000000000000000000000000000000000000000000000000000000000000000000000000057550000000000000000000000000000000000000000000000005755020000000000000          0000000000000000000000000000000000000000000000001010000043
70000000000000000340960004520251906042                         1906042000095212220000101AI 05130000000000 17061502161683144-3                     140216000000005488003332220011602160000000000000000000000000000000000000000000000000000000000000000000000000000000054880000000000000000000000000000000000000000000000005488020000000000000          0000000000000000000000000000000000000000000000001010000044
70000000000000000340960004520251906042                         1906042000095213320000101AI 05130000000000 17061502161683274-3                     140216000000022488723735830011602160000000000000000000000000000000000000000000000000000000000000000000000000000000224887000000000000000000000000000000000000000000000022488720000000000000          0000000000000000000000000000000000000000000000001010000045
70000000000000000340960004520251906042                         1906042000095214020000101AI 05130000000000 17061502161683278-3                     140216000000006446610432040011602160000000000000000000000000000000000000000000000000000000000000000000000000000000064466000000000000000000000000000000000000000000000006446620000000000000          0000000000000000000000000000000000000000000000001010000046
70000000000000000340960004520251906042                         1906042000095214820000101AI 05130000000000 17061502161683285-5                     140216000000014728600121415011602160000000000000000000000000000000000000000000000000000000000000000000000000000000147286000000000000000000000000000000000000000000000014728620000000000000          0000000000000000000000000000000000000000000000001008000047
70000000000000000340960004520251906042                         1906042000095215620000101AI 05130000000000 17061502161683293-3                     140216000000010733723750830011602160000000000000000000000000000000000000000000000000000000000000000000000000000000107337000000000000000000000000000000000000000000000010733720000000000000          0000000000000000000000000000000000000000000000001010000048
70000000000000000340960004520251906042                         1906042000095215920000101AI 05130000000000 17061502161683297-3                     140216000000008948423750830011602160000000000000000000000000000000000000000000000000000000000000000000000000000000089484000000000000000000000000000000000000000000000008948420000000000000          0000000000000000000000000000000000000000000000001010000049
70000000000000000340960004520251906042                         1906042000095216720000101AI 05130000000000 17061502161683303-3                     140216000000008098023708690011602160000000000000000000000000000000000000000000000000000000000000000000000000000000080980000000000000000000000000000000000000000000000008098020000000000000          0000000000000000000000000000000000000000000000001010000050
70000000000000000340960004520251906042                         1906042000095216920003101AI 05120000000000 17061502161683279-2                     150116000000005970023736340011602160000000000000000000000000000000000000000000000000000000000000000000000000000000062800000000000310000000000000000000000000000000000006280020000000000000          0000000000000000000000000000000000000000000000001010000051
70000000000000000340960004520251906042                         1906042000095217420000101AI 05130000000000 17061502161683291-4                     140216000000012410000105487011602160000000000000000000000000000000000000000000000000000000000000000000000000000000124100000000000000000000000000000000000000000000000012410020000000000000          0000000000000000000000000000000000000000000000001007000052
70000000000000000340960004520251906042                         1906042000095217720000101AI 05130000000000 17061502161683299-3                     140216000000007920023750830011602160000000000000000000000000000000000000000000000000000000000000000000000000000000079200000000000000000000000000000000000000000000000007920020000000000000          0000000000000000000000000000000000000000000000001010000053
70000000000000000340960004520251906042                         1906042000095218020000101AI 05130000000000 17061502161683302-3                     140216000000005014600102275011602160000000000000000000000000000000000000000000000000000000000000000000000000000000050146000000000000000000000000000000000000000000000005014620000000000000          0000000000000000000000000000000000000000000000001006000054
70000000000000000340960004520251906042                         1906042000095218620000101AI 05130000000000 17061502161683357-5                     140216000000009537010401160011602160000000000000000000000000000000000000000000000000000000000000000000000000000000095370000000000000000000000000000000000000000000000009537020000000000000          0000000000000000000000000000000000000000000000001010000055
70000000000000000340960004520251906042                         1906042000095219120000101AI 05130000000000 17061502161683358-5                     140216000000008732410401160011602160000000000000000000000000000000000000000000000000000000000000000000000000000000087324000000000000000000000000000000000000000000000008732420000000000000          0000000000000000000000000000000000000000000000001010000056
70000000000000000340960004520251906042                         1906042000095219420000101AI 05130000000000 17061502161683360-3                     140216000000006639600184654011602160000000000000000000000000000000000000000000000000000000000000000000000000000000066396000000000000000000000000000000000000000000000006639620000000000000          0000000000000000000000000000000000000000000000001008000057
70000000000000000340960004520251906042                         1906042000095220720000101AI 05130000000000 17061502161683365-5                     140216000000006583975616470011602160000000000000000000000000000000000000000000000000000000000000000000000000000000065839000000000000000000000000000000000000000000000006583920000000000000          0000000000000000000000000000000000000000000000001010000058
70000000000000000340960004520251906042                         1906042000095221320000101AI 05130000000000 17061502161683370-3                     140216000000005454875624290011602160000000000000000000000000000000000000000000000000000000000000000000000000000000054548000000000000000000000000000000000000000000000005454820000000000000          0000000000000000000000000000000000000000000000001010000059
70000000000000000340960004520251906042                         1906042000095221620000101AI 05130000000000 17061502161683371-3                     140216000000005902534155990011602160000000000000000000000000000000000000000000000000000000000000000000000000000000059025000000000000000000000000000000000000000000000005902520000000000000          0000000000000000000000000000000000000000000000001010000060
70000000000000000340960004520251906042                         1906042000095222520000101AI 05130000000000 17061502161683377-3                     140216000000011089075622630011602160000000000000000000000000000000000000000000000000000000000000000000000000000000110890000000000000000000000000000000000000000000000011089020000000000000          0000000000000000000000000000000000000000000000001010000061
70000000000000000340960004520251906042                         1906042000095223220000101AI 05130000000000 17061502161683381-4                     140216000000005819275630470011602160000000000000000000000000000000000000000000000000000000000000000000000000000000058192000000000000000000000000000000000000000000000005819220000000000000          0000000000000000000000000000000000000000000000001010000062
70000000000000000340960004520251906042                         1906042000095224420000101AI 05130000000000 17061502161683387-5                     140216000000006039975629360011602160000000000000000000000000000000000000000000000000000000000000000000000000000000060399000000000000000000000000000000000000000000000006039920000000000000          0000000000000000000000000000000000000000000000001010000063
70000000000000000340960004520251906042                         1906042000095224720000101AI 05130000000000 17061502161683388-3                     140216000000005674275630470011602160000000000000000000000000000000000000000000000000000000000000000000000000000000056742000000000000000000000000000000000000000000000005674220000000000000          0000000000000000000000000000000000000000000000001010000064
70000000000000000340960004520251906042                         1906042000095225620000101AI 05130000000000 17061502161683393-5                     140216000000015325300145020011602160000000000000000000000000000000000000000000000000000000000000000000000000000000153253000000000000000000000000000000000000000000000015325320000000000000          0000000000000000000000000000000000000000000000001008000065
70000000000000000340960004520251906042                         1906042000095227120000101AI 05130000000000 17061502161683469-3                     140216000000007855234102890011602160000000000000000000000000000000000000000000000000000000000000000000000000000000078552000000000000000000000000000000000000000000000007855220000000000000          0000000000000000000000000000000000000000000000001010000066
70000000000000000340960004520251906042                         1906042000095227820000101AI 05130000000000 17061502161683477-3                     140216000000009490623729370011602160000000000000000000000000000000000000000000000000000000000000000000000000000000094906000000000000000000000000000000000000000000000009490620000000000000          0000000000000000000000000000000000000000000000001010000067
70000000000000000340960004520251906042                         1906042000095230420000001AI 05130000000000 17061502161683751-3                     150216000000017252403338240011602160000000000000000000000000000000000000000000000000000000000000000000000000000000172524000000000000000000000000000000000000000000000017252420000000000000          0000000000000000000000000000000000000000000000001010000068
70000000000000000340960004520251906042                         1906042000095230920000001AI 05130000000000 17061502161683754-5                     150216000000008390010410650011602160000000000000000000000000000000000000000000000000000000000000000000000000000000083900000000000000000000000000000000000000000000000008390020000000000000          0000000000000000000000000000000000000000000000001010000069
70000000000000000340960004520251906042                         1906042000095231520000001AI 05130000000000 17061502161683755-5                     150216000000016550010410650011602160000000000000000000000000000000000000000000000000000000000000000000000000000000165500000000000000000000000000000000000000000000000016550020000000000000          0000000000000000000000000000000000000000000000001010000070
70000000000000000340960004520251906042                         1906042000095232120000001AI 05130000000000 17061502161683757-3                     150216000000013891410401360011602160000000000000000000000000000000000000000000000000000000000000000000000000000000138914000000000000000000000000000000000000000000000013891420000000000000          0000000000000000000000000000000000000000000000001010000071
70000000000000000340960004520251906042                         1906042000095232720000001AI 05130000000000 17061502161683759-4                     150216000000007150400122799011602160000000000000000000000000000000000000000000000000000000000000000000000000000000071504000000000000000000000000000000000000000000000007150420000000000000          0000000000000000000000000000000000000000000000001006000072
70000000000000000340960004520251906042                         1906042000095233120000001AI 05130000000000 17061502161683760-4                     150216000000002890003335030011602160000000000000000000000000000000000000000000000000000000000000000000000000000000028900000000000000000000000000000000000000000000000002890020000000000000          0000000000000000000000000000000000000000000000001010000073
70000000000000000340960004520251906042                         1906042000095233420000001AI 05130000000000 17061502161683761-3                     150216000000005965675641080011602160000000000000000000000000000000000000000000000000000000000000000000000000000000059656000000000000000000000000000000000000000000000005965620000000000000          0000000000000000000000000000000000000000000000001010000074
70000000000000000340960004520251906042                         1906042000095233720000001AI 05130000000000 17061502161683762-3                     150216000000011347975641080011602160000000000000000000000000000000000000000000000000000000000000000000000000000000113479000000000000000000000000000000000000000000000011347920000000000000          0000000000000000000000000000000000000000000000001010000075
70000000000000000340960004520251906042                         1906042000095234120000001AI 05130000000000 17061502161683764-3                     150216000000005718523720680011602160000000000000000000000000000000000000000000000000000000000000000000000000000000057185000000000000000000000000000000000000000000000005718520000000000000          0000000000000000000000000000000000000000000000001010000076
70000000000000000340960004520251906042                         1906042000095235420000001AI 05130000000000 17061502161683770-3                     150216000000006556610401460011602160000000000000000000000000000000000000000000000000000000000000000000000000000000065566000000000000000000000000000000000000000000000006556620000000000000          0000000000000000000000000000000000000000000000001010000077
70000000000000000340960004520251906042                         1906042000095236320000001AI 05130000000000 17061502161683789-5                     150216000000002443875614820011602160000000000000000000000000000000000000000000000000000000000000000000000000000000024438000000000000000000000000000000000000000000000002443820000000000000          0000000000000000000000000000000000000000000000001010000078
70000000000000000340960004520251906042                         1906042000095237620000001AI 05130000000000 17061502161683798-5                     150216000000006040302100920011602160000000000000000000000000000000000000000000000000000000000000000000000000000000060403000000000000000000000000000000000000000000000006040320000000000000          0000000000000000000000000000000000000000000000001010000079
70000000000000000340960004520251906042                         1906042000095238220000001AI 05130000000000 17061502161683801-3                     150216000000005660010405900011602160000000000000000000000000000000000000000000000000000000000000000000000000000000056600000000000000000000000000000000000000000000000005660020000000000000          0000000000000000000000000000000000000000000000001010000080
70000000000000000340960004520251906042                         1906042000095238920000001AI 05130000000000 17061502161683806-3                     150216000000009525702100990011602160000000000000000000000000000000000000000000000000000000000000000000000000000000095257000000000000000000000000000000000000000000000009525720000000000000          0000000000000000000000000000000000000000000000001010000081
70000000000000000340960004520251906042                         1906042000095239820000001AI 05130000000000 17061502161683813-3                     150216000000005728634192880011602160000000000000000000000000000000000000000000000000000000000000000000000000000000057286000000000000000000000000000000000000000000000005728620000000000000          0000000000000000000000000000000000000000000000001010000082
70000000000000000340960004520251906042                         1906042000095240420000001AI 05130000000000 17061502161683817-4                     150216000000007338000178166011602160000000000000000000000000000000000000000000000000000000000000000000000000000000073380000000000000000000000000000000000000000000000007338020000000000000          0000000000000000000000000000000000000000000000001008000083
70000000000000000340960004520251906042                         1906042000095240920000001AI 05130000000000 17061502161683818-5                     150216000000009666202100660011602160000000000000000000000000000000000000000000000000000000000000000000000000000000096662000000000000000000000000000000000000000000000009666220000000000000          0000000000000000000000000000000000000000000000001010000084
70000000000000000340960004520251906042                         1906042000095241720000001AI 05130000000000 17061502161683822-3                     150216000000005597910431390011602160000000000000000000000000000000000000000000000000000000000000000000000000000000055979000000000000000000000000000000000000000000000005597920000000000000          0000000000000000000000000000000000000000000000001010000085
70000000000000000340960004520251906042                         1906042000095242120000001AI 05130000000000 17061502161683824-3                     150216000000004980010411120011602160000000000000000000000000000000000000000000000000000000000000000000000000000000049800000000000000000000000000000000000000000000000004980020000000000000          0000000000000000000000000000000000000000000000001010000086
70000000000000000340960004520251906042                         1906042000095242620000001AI 05130000000000 17061502161683825-5                     150216000000009702175613550011602160000000000000000000000000000000000000000000000000000000000000000000000000000000097021000000000000000000000000000000000000000000000009702120000000000000          0000000000000000000000000000000000000000000000001010000087
70000000000000000340960004520251906042                         1906042000095243520000001AI 05130000000000 17061502161683837-3                     150216000000014070123705790011602160000000000000000000000000000000000000000000000000000000000000000000000000000000140701000000000000000000000000000000000000000000000014070120000000000000          0000000000000000000000000000000000000000000000001010000088
70000000000000000340960004520251906042                         1906042000095243820000001AI 05130000000000 17061502161683838-3                     150216000000004701500109008011602160000000000000000000000000000000000000000000000000000000000000000000000000000000047015000000000000000000000000000000000000000000000004701520000000000000          0000000000000000000000000000000000000000000000001008000089
70000000000000000340960004520251906042                         1906042000095244320000001AI 05130000000000 17061502161683839-5                     150216000000007011300109008011602160000000000000000000000000000000000000000000000000000000000000000000000000000000070113000000000000000000000000000000000000000000000007011320000000000000          0000000000000000000000000000000000000000000000001008000090
70000000000000000340960004520251906042                         1906042000095244820000001AI 05130000000000 17061502161683840-5                     150216000000006409575630420011602160000000000000000000000000000000000000000000000000000000000000000000000000000000064095000000000000000000000000000000000000000000000006409520000000000000          0000000000000000000000000000000000000000000000001010000091
70000000000000000340960004520251906042                         1906042000095245220000001AI 05130000000000 17061502161683842-3                     150216000000004087710409530011602160000000000000000000000000000000000000000000000000000000000000000000000000000000040877000000000000000000000000000000000000000000000004087720000000000000          0000000000000000000000000000000000000000000000001010000092
70000000000000000340960004520251906042                         1906042000095245620000001AI 05130000000000 17061502161683844-3                     150216000000004830423711120011602160000000000000000000000000000000000000000000000000000000000000000000000000000000048304000000000000000000000000000000000000000000000004830420000000000000          0000000000000000000000000000000000000000000000001010000093
70000000000000000340960004520251906042                         1906042000095247720000001AI 05130000000000 17061502161683857-3                     150216000000005674800104634011602160000000000000000000000000000000000000000000000000000000000000000000000000000000056748000000000000000000000000000000000000000000000005674820000000000000          0000000000000000000000000000000000000000000000001008000094
70000000000000000340960004520251906042                         1906042000095248520000001AI 05150000000000 17061502161683862-5                     150216000000005362010412390011602160000000000000000000000000000000000000000000000000000000000000000000000000000000053620000000000000000000000000000000000000000000000005362020000000000000          0000000000000000000000000000000000000000000000001010000095
70000000000000000340960004520251906042                         1906042000095249220000001AI 05130000000000 17061502161683867-5                     150216000000017201775630930011602160000000000000000000000000000000000000000000000000000000000000000000000000000000172017000000000000000000000000000000000000000000000017201720000000000000          0000000000000000000000000000000000000000000000001010000096
70000000000000000340960004520251906042                         1906042000095250220000001AI 05130000000000 17061502161684115-3                     150216000000006481100121644011602160000000000000000000000000000000000000000000000000000000000000000000000000000000064811000000000000000000000000000000000000000000000006481120000000000000          0000000000000000000000000000000000000000000000001008000097
70000000000000000340960004520251906042                         1906042000095269020000301AI 05130000000000 17061502161684405-3                     180216000000005162010411150011602160000000000000000000000000000000000000000000000000000000000000000000000000000000051620000000000000000000000000000000000000000000000005162020000000000000          0000000000000000000000000000000000000000000000001010000098
70000000000000000340960004520251906042                         1906042000095288920000201AI 05130000000000 17061502161684679-4                     130216000000004830000110588011602160000000000000000000000000000000000000000000000000000000000000000000000000000000048300000000000000000000000000000000000000000000000004830020000000000000          0000000000000000000000000000000000000000000000001004000099
70000000000000000340960004520251906042                         1906042000095304120000301AI 05130000000000 17061502161684816-3                     180216000000007172300127340011602160000000000000000000000000000000000000000000000000000000000000000000000000000000071723000000000000000000000000000000000000000000000007172320000000000000          0000000000000000000000000000000000000000000000001007000100
70000000000000000340960004520251906042                         1906042000095308720000401AI 05130000000000 17061502161684950-3                     190216000000007202103317190011602160000000000000000000000000000000000000000000000000000000000000000000000000000000072021000000000000000000000000000000000000000000000007202120000000000000          0000000000000000000000000000000000000000000000001010000101
70000000000000000340960004520251906042                         1906042000095309820000401AI 05130000000000 17061502161684953-5                     190216000000009539003334920011602160000000000000000000000000000000000000000000000000000000000000000000000000000000095390000000000000000000000000000000000000000000000009539020000000000000          0000000000000000000000000000000000000000000000001010000102
70000000000000000340960004520251906042                         1906042000095310320000401AI 05130000000000 17061502161684955-5                     190216000000015794703334920011602160000000000000000000000000000000000000000000000000000000000000000000000000000000157947000000000000000000000000000000000000000000000015794720000000000000          0000000000000000000000000000000000000000000000001010000103
70000000000000000340960004520251906042                         1906042000095311020000401AI 05130000000000 17061502161684959-3                     190216000000006020903334920011602160000000000000000000000000000000000000000000000000000000000000000000000000000000060209000000000000000000000000000000000000000000000006020920000000000000          0000000000000000000000000000000000000000000000001010000104
70000000000000000340960004520251906042                         1906042000095314620000301AI 05130000000000 17061502161684973-3                     180216000000003493203330760011602160000000000000000000000000000000000000000000000000000000000000000000000000000000034932000000000000000000000000000000000000000000000003493220000000000000          0000000000000000000000000000000000000000000000001010000105
70000000000000000340960004520251906042                         1906042000095318220000401AI 05130000000000 17061502161685144-4                     190216000000004892110437980011602160000000000000000000000000000000000000000000000000000000000000000000000000000000048921000000000000000000000000000000000000000000000004892120000000000000          0000000000000000000000000000000000000000000000001010000106
70000000000000000340960004520251906042                         1906042000095324720000401AI 05130000000000 17061502161685184-3                     190216000000005553223710460011602160000000000000000000000000000000000000000000000000000000000000000000000000000000055532000000000000000000000000000000000000000000000005553220000000000000          0000000000000000000000000000000000000000000000001010000107
70000000000000000340960004520251906042                         1906042000095328320001101AI 05130000000000 17061502161685213-4                     040216000000006260023719830011602160000000000000000000000000000000000000000000000000000000000000000000000000000000063744000000000114400000000000000000000000000000000006374420000000000000          0000000000000000000000000000000000000000000000001010000108
70000000000000000340960004520251906042                         1906042000095341220000401AI 05130000000000 17061502161685269-4                     190216000000010235075616790011602160000000000000000000000000000000000000000000000000000000000000000000000000000000102350000000000000000000000000000000000000000000000010235020000000000000          0000000000000000000000000000000000000000000000001010000109
70000000000000000340960004520251906042                         1906042000095350520000901AI 05130000000000 17061502161685504-2                     060216000000007903310437320011602160000000000000000000000000000000000000000000000000000000000000000000000000000000080221000000000118800000000000000000000000000000000008022120000000000000          0000000000000000000000000000000000000000000000001010000110
70000000000000000340960004520251906042                         1906042000095373220000801AI 05130000000000 17061502161686023-2                     070216000000005166800100620011602160000000000000000000000000000000000000000000000000000000000000000000000000000000052356000000000068800000000000000000000000000000000005235620000000000000          0000000000000000000000000000000000000000000000001007000111
70000000000000000340960004520251906042                         1906042000095399120000401AI 05130000000000 17061502161686805-4                     110216000000009160074880250011602160000000000000000000000000000000000000000000000000000000000000000000000000000000092212000000000061200000000000000000000000000000000009221220000000000000          0000000000000000000000000000000000000000000000001010000112
70000000000000000340960004520251906042                         1906042000095475920001909AI 05120000000000 17151502161687693-2                     270116000000019090000121970011602160000000000000000000000000000000000000000000000000000000000000000000000000000000190900000000000000000000000000000000000000000000000019090020000000000000          0000000000000000000000000000000000000000000000001008000113
70000000000000000340960004520251906042                         1906042000095487220000401AI 05130000000000 17061502161687782-4                     110216000000003240000105428011602160000000000000000000000000000000000000000000000000000000000000000000000000000000032616000000000021600000000000000000000000000000000003261620000000000000          0000000000000000000000000000000000000000000000001008000114
70000000000000000340960004520251906042                         1906042000095487720000401AI 05130000000000 17061502161687783-4                     110216000000003380000105428011602160000000000000000000000000000000000000000000000000000000000000000000000000000000034024000000000022400000000000000000000000000000000003402420000000000000          0000000000000000000000000000000000000000000000001008000115
70000000000000000340960004520251906042                         1906042000095503720000201AI 05130000000000 17061502161688348-4                     130216000000008310000125097011602160000000000000000000000000000000000000000000000000000000000000000000000000000000083100000000000000000000000000000000000000000000000008310020000000000000          0000000000000000000000000000000000000000000000001008000116
70000000000000000340960004520251906042                         1906042000095505420000201AI 05130000000000 17061502161688359-4                     130216000000006480010445950011602160000000000000000000000000000000000000000000000000000000000000000000000000000000064800000000000000000000000000000000000000000000000006480020000000000000          0000000000000000000000000000000000000000000000001010000117
70000000000000000340960004520251906042                         1906042000095506220000201AI 05130000000000 17061502161688361-4                     130216000000008680000110804011602160000000000000000000000000000000000000000000000000000000000000000000000000000000086800000000000000000000000000000000000000000000000008680020000000000000          0000000000000000000000000000000000000000000000001008000118
70000000000000000340960004520251906042                         1906042000095512220000201AI 05130000000000 17061502161688418-2                     130216000000005062723715380011602160000000000000000000000000000000000000000000000000000000000000000000000000000000050627000000000000000000000000000000000000000000000005062720000000000000          0000000000000000000000000000000000000000000000001010000119
70000000000000000340960004520251906042                         1906042000095519120000101AI 05130000000000 17061502161688446-4                     140216000000012010000112408011602160000000000000000000000000000000000000000000000000000000000000000000000000000000120100000000000000000000000000000000000000000000000012010020000000000000          0000000000000000000000000000000000000000000000001004000120
70000000000000000340960004520251906042                         1906042000095519620000101AI 05130000000000 17061502161688450-4                     140216000000008340010431320011602160000000000000000000000000000000000000000000000000000000000000000000000000000000083400000000000000000000000000000000000000000000000008340020000000000000          0000000000000000000000000000000000000000000000001010000121
70000000000000000340960004520251906042                         1906042000095522720000101AI 05130000000000 17061502161688467-4                     140216000000007110075630100011602160000000000000000000000000000000000000000000000000000000000000000000000000000000071100000000000000000000000000000000000000000000000007110020000000000000          0000000000000000000000000000000000000000000000001010000122
70000000000000000340960004520251906042                         1906042000095525620000101AI 05130000000000 17061502161688612-4                     140216000000018800023736280011602160000000000000000000000000000000000000000000000000000000000000000000000000000000188000000000000000000000000000000000000000000000000018800020000000000000          0000000000000000000000000000000000000000000000001010000123
70000000000000000340960004520251906042                         1906042000095526220000101AI 05130000000000 17061502161688614-4                     140216000000005690010409470011602160000000000000000000000000000000000000000000000000000000000000000000000000000000056900000000000000000000000000000000000000000000000005690020000000000000          0000000000000000000000000000000000000000000000001010000124
70000000000000000340960004520251906042                         1906042000095528720000101AI 05130000000000 17061502161688622-4                     140216000000008000010437990011602160000000000000000000000000000000000000000000000000000000000000000000000000000000080000000000000000000000000000000000000000000000000008000020000000000000          0000000000000000000000000000000000000000000000001010000125
70000000000000000340960004520251906042                         1906042000095529220000101AI 05130000000000 17061502161688624-4                     140216000000006500000114966011602160000000000000000000000000000000000000000000000000000000000000000000000000000000065000000000000000000000000000000000000000000000000006500020000000000000          0000000000000000000000000000000000000000000000001007000126
70000000000000000340960004520251906042                         1906042000095532920000101AI 05130000000000 17061502161688646-4                     140216000000005640004101200011602160000000000000000000000000000000000000000000000000000000000000000000000000000000056400000000000000000000000000000000000000000000000005640020000000000000          0000000000000000000000000000000000000000000000001010000127
70000000000000000340960004520251906042                         1906042000095533220000101AI 05130000000000 17061502161688647-2                     140216000000004424604101200011602160000000000000000000000000000000000000000000000000000000000000000000000000000000044246000000000000000000000000000000000000000000000004424620000000000000          0000000000000000000000000000000000000000000000001010000128
70000000000000000340960004520251906042                         1906042000095535320000101AI 05130000000000 17061502161688655-4                     140216000000007360004102800011602160000000000000000000000000000000000000000000000000000000000000000000000000000000073600000000000000000000000000000000000000000000000007360020000000000000          0000000000000000000000000000000000000000000000001010000129
70000000000000000340960004520251906042                         1906042000095538120000101AI 05130000000000 17061502161688671-2                     140216000000003560604108930011602160000000000000000000000000000000000000000000000000000000000000000000000000000000035606000000000000000000000000000000000000000000000003560620000000000000          0000000000000000000000000000000000000000000000001010000130
70000000000000000340960004520251906042                         1906042000095538920000101AI 05130000000000 17061502161688674-4                     140216000000006460075610370011602160000000000000000000000000000000000000000000000000000000000000000000000000000000064600000000000000000000000000000000000000000000000006460020000000000000          0000000000000000000000000000000000000000000000001010000131
70000000000000000340960004520251906042                         1906042000095539420000101AI 05130000000000 17061502161688675-4                     140216000000005830075610370011602160000000000000000000000000000000000000000000000000000000000000000000000000000000058300000000000000000000000000000000000000000000000005830020000000000000          0000000000000000000000000000000000000000000000001010000132
70000000000000000340960004520251906042                         1906042000095545320000101AI 05130000000000 17061502161688815-4                     140216000000009380034105190011602160000000000000000000000000000000000000000000000000000000000000000000000000000000093800000000000000000000000000000000000000000000000009380020000000000000          0000000000000000000000000000000000000000000000001010000133
70000000000000000340960004520251906042                         1906042000095546720000101AI 05130000000000 17061502161688830-4                     140216000000005170000132107011602160000000000000000000000000000000000000000000000000000000000000000000000000000000051700000000000000000000000000000000000000000000000005170020000000000000          0000000000000000000000000000000000000000000000001006000134
70000000000000000340960004520251906042                         1906042000095548220000101AI 05130000000000 17061502161688840-4                     140216000000014600000113277011602160000000000000000000000000000000000000000000000000000000000000000000000000000000146000000000000000000000000000000000000000000000000014600020000000000000          0000000000000000000000000000000000000000000000001008000135
70000000000000000340960004520251906042                         1906042000095548820000101AI 05130000000000 17061502161688842-4                     140216000000024920000113277011602160000000000000000000000000000000000000000000000000000000000000000000000000000000249200000000000000000000000000000000000000000000000024920020000000000000          0000000000000000000000000000000000000000000000001008000136
70000000000000000340960004520251906042                         1906042000095549420000101AI 05130000000000 17061502161688843-4                     140216000000004910000113277011602160000000000000000000000000000000000000000000000000000000000000000000000000000000049100000000000000000000000000000000000000000000000004910020000000000000          0000000000000000000000000000000000000000000000001008000137
70000000000000000340960004520251906042                         1906042000095550020000101AI 05130000000000 17061502161688844-4                     140216000000006310000138075011602160000000000000000000000000000000000000000000000000000000000000000000000000000000063100000000000000000000000000000000000000000000000006310020000000000000          0000000000000000000000000000000000000000000000001008000138
70000000000000000340960004520251906042                         1906042000095552220000101AI 05130000000000 17061502161688907-2                     140216000000004380200138717011602160000000000000000000000000000000000000000000000000000000000000000000000000000000043802000000000000000000000000000000000000000000000004380220000000000000          0000000000000000000000000000000000000000000000001001000139
70000000000000000340960004520251906042                         1906042000095552420000101AI 05130000000000 17061502161688908-2                     140216000000004125700138717011602160000000000000000000000000000000000000000000000000000000000000000000000000000000041257000000000000000000000000000000000000000000000004125720000000000000          0000000000000000000000000000000000000000000000001001000140
70000000000000000340960004520251906042                         1906042000095554320000101AI 05130000000000 17061502161688916-4                     140216000000006630010401510011602160000000000000000000000000000000000000000000000000000000000000000000000000000000066300000000000000000000000000000000000000000000000006630020000000000000          0000000000000000000000000000000000000000000000001010000141
70000000000000000340960004520251906042                         1906042000095556520000101AI 05130000000000 17061502161688930-2                     140216000000004643023724520011602160000000000000000000000000000000000000000000000000000000000000000000000000000000046430000000000000000000000000000000000000000000000004643020000000000000          0000000000000000000000000000000000000000000000001010000142
70000000000000000340960004520251906042                         1906042000095559520000001AI 05130000000000 17061502161689195-2                     15021600000000515620016940X011602160000000000000000000000000000000000000000000000000000000000000000000000000000000051562000000000000000000000000000000000000000000000005156220000000000000          0000000000000000000000000000000000000000000000001008000143
70000000000000000340960004520251906042                         1906042000095560520000001AI 05130000000000 17061502161689198-4                     150216000000009739400104847011602160000000000000000000000000000000000000000000000000000000000000000000000000000000097394000000000000000000000000000000000000000000000009739420000000000000          0000000000000000000000000000000000000000000000001006000144
70000000000000000340960004520251906042                         1906042000095563420000001AI 05130000000000 17061502161689210-4                     150216000000013860075611040011602160000000000000000000000000000000000000000000000000000000000000000000000000000000138600000000000000000000000000000000000000000000000013860020000000000000          0000000000000000000000000000000000000000000000001010000145
70000000000000000340960004520251906042                         1906042000095564620000001AI 05130000000000 17061502161689271-2                     150216000000004543510434410011602160000000000000000000000000000000000000000000000000000000000000000000000000000000045435000000000000000000000000000000000000000000000004543520000000000000          0000000000000000000000000000000000000000000000001010000146
70000000000000000340960004520251906042                         1906042000095566020000001AI 05130000000000 17061502161689284-2                     150216000000004448974890350011602160000000000000000000000000000000000000000000000000000000000000000000000000000000044489000000000000000000000000000000000000000000000004448920000000000000          0000000000000000000000000000000000000000000000001010000147
70000000000000000340960004520251906042                         1906042000095567720000101AI 05130000000000 17061502161689375-2                     160216000000004163823750830011602160000000000000000000000000000000000000000000000000000000000000000000000000000000041638000000000000000000000000000000000000000000000004163820000000000000          0000000000000000000000000000000000000000000000001010000148
70000000000000000340960004520251906042                         1906042000095568620000101AI 05130000000000 17061502161689404-4                     160216000000003540023750830011602160000000000000000000000000000000000000000000000000000000000000000000000000000000035400000000000000000000000000000000000000000000000003540020000000000000          0000000000000000000000000000000000000000000000001010000149
70000000000000000340960004520251906042                         1906042000095569020000301AI 05130000000000 17061502161689513-2                     180216000000004315410419080011602160000000000000000000000000000000000000000000000000000000000000000000000000000000043154000000000000000000000000000000000000000000000004315420000000000000          0000000000000000000000000000000000000000000000001010000150
70000000000000000340960004520251906042                         1906042000095570120000301AI 05130000000000 17061502161689525-2                     180216000000004509775632600011602160000000000000000000000000000000000000000000000000000000000000000000000000000000045097000000000000000000000000000000000000000000000004509720000000000000          0000000000000000000000000000000000000000000000001010000151
70000000000000000340960004520251906042                         1906042000095570520000301AI 05130000000000 17061502161689526-4                     180216000000007090075630030011602160000000000000000000000000000000000000000000000000000000000000000000000000000000070900000000000000000000000000000000000000000000000007090020000000000000          0000000000000000000000000000000000000000000000001010000152
70000000000000000340960004520251906042                         1906042000095571320000301AI 05130000000000 17061502161689529-4                     180216000000004570075615830011602160000000000000000000000000000000000000000000000000000000000000000000000000000000045700000000000000000000000000000000000000000000000004570020000000000000          0000000000000000000000000000000000000000000000001010000153
70000000000000000340960004520251906042                         1906042000095573620000201AI 05130000000000 17061502161689537-4                     130216000000007206202101490011602160000000000000000000000000000000000000000000000000000000000000000000000000000000072062000000000000000000000000000000000000000000000007206220000000000000          0000000000000000000000000000000000000000000000001010000154
70000000000000000340960004520251906042                         1906042000095585820000301AI 05130000000000 17061502161689611-4                     180216000000019620023735920011602160000000000000000000000000000000000000000000000000000000000000000000000000000000196200000000000000000000000000000000000000000000000019620020000000000000          0000000000000000000000000000000000000000000000001010000155
70000000000000000340960004520251906042                         1906042000095588520001801AI 05130000000000 17061502161689631-5                     040316000000025328510448280011602160000000000000000000000000000000000000000000000000000000000000000000000000000000253285000000000000000000000000000000000000000000000025328520000000000000          0000000000000000000000000000000000000000000000001010000156
70000000000000000340960004520251906042                         1906042000095646520001201AI 05130000000000 17061502161690657-2                     030216000000020271734143790011602160000000000000000000000000000000000000000000000000000000000000000000000000000000206773000000000405600000000000000000000000000000000020677320000000000000          0000000000000000000000000000000000000000000000001010000157
70000000000000000340960004520251906042                         1906042000095656820000201AI 05150000000000 17061502161690406-3                     130216000000003179210411080011602160000000000000000000000000000000000000000000000000000000000000000000000000000000031792000000000000000000000000000000000000000000000003179220000000000000          0000000000000000000000000000000000000000000000001010000158
70000000000000000340960004520251906042                         1906042000095657520000201AI 05150000000000 17061502161690408-3                     130216000000005110010402580011602160000000000000000000000000000000000000000000000000000000000000000000000000000000051100000000000000000000000000000000000000000000000005110020000000000000          0000000000000000000000000000000000000000000000001010000159
70000000000000000340960004520251906042                         1906042000095658820000201AI 05130000000000 17061502161690414-3                     130216000000005150010411080011602160000000000000000000000000000000000000000000000000000000000000000000000000000000051500000000000000000000000000000000000000000000000005150020000000000000          0000000000000000000000000000000000000000000000001010000160
70000000000000000340960004520251906042                         1906042000095659320000301AI 05130000000000 17061502161690415-4                     180216000000008060000134975011602160000000000000000000000000000000000000000000000000000000000000000000000000000000080600000000000000000000000000000000000000000000000008060020000000000000          0000000000000000000000000000000000000000000000001006000161
70000000000000000340960004520251906042                         1906042000095663720000001AI 05130000000000 17061502161690883-3                     150216000000004490000103891011602160000000000000000000000000000000000000000000000000000000000000000000000000000000044900000000000000000000000000000000000000000000000004490020000000000000          0000000000000000000000000000000000000000000000001008000162
70000000000000000340960004520251906042                         1906042000095664220000501AI 05130000000000 17061502161690884-4                     200216000000009670000103891011602160000000000000000000000000000000000000000000000000000000000000000000000000000000096700000000000000000000000000000000000000000000000009670020000000000000          0000000000000000000000000000000000000000000000001008000163
70000000000000000340960004520251906042                         1906042000095666720000001AI 05130000000000 17061502161690896-3                     150216000000005200000110839011602160000000000000000000000000000000000000000000000000000000000000000000000000000000052000000000000000000000000000000000000000000000000005200020000000000000          0000000000000000000000000000000000000000000000001008000164
70000000000000000340960004520251906042                         1906042000095671420000001AI 05130000000000 17061502161691002-3                     150216000000005510000145829011602160000000000000000000000000000000000000000000000000000000000000000000000000000000055100000000000000000000000000000000000000000000000005510020000000000000          0000000000000000000000000000000000000000000000001004000165
70000000000000000340960004520251906042                         1906042000095677320000001AI 05130000000000 17061502161691048-3                     150216000000004320002101760011602160000000000000000000000000000000000000000000000000000000000000000000000000000000043200000000000000000000000000000000000000000000000004320020000000000000          0000000000000000000000000000000000000000000000001010000166
70000000000000000340960004520251906042                         1906042000095679520000001AI 05130000000000 17061502161691056-3                     150216000000007890010407160011602160000000000000000000000000000000000000000000000000000000000000000000000000000000078900000000000000000000000000000000000000000000000007890020000000000000          0000000000000000000000000000000000000000000000001010000167
70000000000000000340960004520251906042                         1906042000095681320000001AI 05130000000000 17061502161691064-3                     150216000000009970075618110011602160000000000000000000000000000000000000000000000000000000000000000000000000000000099700000000000000000000000000000000000000000000000009970020000000000000          0000000000000000000000000000000000000000000000001010000168
70000000000000000340960004520251906042                         1906042000095682620000001AI 05130000000000 17061502161691072-3                     150216000000005220002101880011602160000000000000000000000000000000000000000000000000000000000000000000000000000000052200000000000000000000000000000000000000000000000005220020000000000000          0000000000000000000000000000000000000000000000001010000169
70000000000000000340960004520251906042                         1906042000095702420000701AI 05130000000000 17061502161691886-2                     220216000000005783575644470011602160000000000000000000000000000000000000000000000000000000000000000000000000000000057835000000000000000000000000000000000000000000000005783520000000000000          0000000000000000000000000000000000000000000000001010000170
70000000000000000340960004520251906042                         1906042000095709520000501AI 05130000000000 17061502161692039-2                     100216000000005050000114702011602160000000000000000000000000000000000000000000000000000000000000000000000000000000050920000000000042000000000000000000000000000000000005092020000000000000          0000000000000000000000000000000000000000000000001007000171
70000000000000000340960004520251906042                         1906042000095711720000601AI 05150000000000 17061502161692170-2                     090216000000010400000156901011602160000000000000000000000000000000000000000000000000000000000000000000000000000000105038000000000103800000000000000000000000000000000010503820000000000000          0000000000000000000000000000000000000000000000001001000172
70000000000000000340960004520251906042                         1906042000095714520000601AI 05130000000000 17061502161692191-2                     090216000000006060000157185011602160000000000000000000000000000000000000000000000000000000000000000000000000000000061206000000000060600000000000000000000000000000000006120620000000000000          0000000000000000000000000000000000000000000000001008000173
70000000000000000340960004520251906042                         1906042000095715320000701AI 05130000000000 17061502161692237-2                     080216000000005124423722240011602160000000000000000000000000000000000000000000000000000000000000000000000000000000051839000000000059500000000000000000000000000000000005183920000000000000          0000000000000000000000000000000000000000000000001010000174
70000000000000000340960004520251906042                         1906042000095730020000601AI 05130000000000 17061502161692456-2                     090216000000006320000113129011602160000000000000000000000000000000000000000000000000000000000000000000000000000000063830000000000063000000000000000000000000000000000006383020000000000000          0000000000000000000000000000000000000000000000001008000175
70000000000000000340960004520251906042                         1906042000095739020000601AI 05130000000000 17061502161692525-2                     090216000000008150000144075011602160000000000000000000000000000000000000000000000000000000000000000000000000000000082316000000000081600000000000000000000000000000000008231620000000000000          0000000000000000000000000000000000000000000000001001000176
70000000000000000340960004520251906042                         1906042000095739620000901AI 05130000000000 17061502161692529-2                     240216000000006415500110537011602160000000000000000000000000000000000000000000000000000000000000000000000000000000064155000000000000000000000000000000000000000000000006415520000000000000          0000000000000000000000000000000000000000000000001008000177
70000000000000000340960004520251906042                         1906042000095748020000501AI 05130000000000 17061502161692592-3                     100216000000006260010405900011602160000000000000000000000000000000000000000000000000000000000000000000000000000000063120000000000052000000000000000000000000000000000006312020000000000000          0000000000000000000000000000000000000000000000001010000178
70000000000000000340960004520251906042                         1906042000095750120000501AI 05150000000000 17061502161692603-2                     100216000000005760002102050011602160000000000000000000000000000000000000000000000000000000000000000000000000000000058080000000000048000000000000000000000000000000000005808020000000000000          0000000000000000000000000000000000000000000000001010000179
70000000000000000340960004520251906042                         1906042000095755320000601AI 05150000000000 17061502161692727-3                     09021600000001577000010815X011602160000000000000000000000000000000000000000000000000000000000000000000000000000000159278000000000157800000000000000000000000000000000015927820000000000000          0000000000000000000000000000000000000000000000001001000180
70000000000000000340960004520251906042                         1906042000095759120002401AI 05130000000000 17061502161692746-1                     100316000000009112003700400011602160000000000000000000000000000000000000000000000000000000000000000000000000000000091120000000000000000000000000000000000000000000000009112020000000000000          0000000000000000000000000000000000000000000000001010000181
70000000000000000340960004520251906042                         1906042000095759420002401AI 05130000000000 17061502161692747-3                     100316000000012350103700400011602160000000000000000000000000000000000000000000000000000000000000000000000000000000123501000000000000000000000000000000000000000000000012350120000000000000          0000000000000000000000000000000000000000000000001010000182
70000000000000000340960004520251906042                         1906042000095764520000501AI 05130000000000 17061502161692846-2                     100216000000004550010436120011602160000000000000000000000000000000000000000000000000000000000000000000000000000000045880000000000038000000000000000000000000000000000004588020000000000000          0000000000000000000000000000000000000000000000001010000183
70000000000000000340960004520251906042                         1906042000095791320001001AI 05130000000000 17061502161693087-2                     250216000000003373400113269011602160000000000000000000000000000000000000000000000000000000000000000000000000000000033734000000000000000000000000000000000000000000000003373420000000000000          0000000000000000000000000000000000000000000000001008000184
70000000000000000340960004520251906042                         1906042000095848320000301AI 05130000000000 17061502161693628-3                     120216000000013310000123485011602160000000000000000000000000000000000000000000000000000000000000000000000000000000133766000000000066600000000000000000000000000000000013376620000000000000          0000000000000000000000000000000000000000000000001008000185
70000000000000000340960004520251906042                         1906042000095863520000301AI 05130000000000 17061502161693689-1                     120216000000009353300120192011602160000000000000000000000000000000000000000000000000000000000000000000000000000000094001000000000046800000000000000000000000000000000009400120000000000000          0000000000000000000000000000000000000000000000001008000186
70000000000000000340960004520251906042                         1906042000095864620002701AI 05130000000000 17061502161693692-3                     130316000000010558210410090011602160000000000000000000000000000000000000000000000000000000000000000000000000000000105582000000000000000000000000000000000000000000000010558220000000000000          0000000000000000000000000000000000000000000000001010000187
70000000000000000340960004520251906042                         1906042000095865020000301AI 05130000000000 17061502161693695-2                     120216000000005650000105576011602160000000000000000000000000000000000000000000000000000000000000000000000000000000056782000000000028200000000000000000000000000000000005678220000000000000          0000000000000000000000000000000000000000000000001007000188
70000000000000000340960004520251906042                         1906042000095879120002701AI 05130000000000 17061502161693800-3                     130316000000014009510413060011602160000000000000000000000000000000000000000000000000000000000000000000000000000000140095000000000000000000000000000000000000000000000014009520000000000000          0000000000000000000000000000000000000000000000001010000189
70000000000000000340960004520251906042                         1906042000095881920000201AI 05130000000000 17061502161693941-2                     130216000000006530023705710011602160000000000000000000000000000000000000000000000000000000000000000000000000000000065300000000000000000000000000000000000000000000000006530020000000000000          0000000000000000000000000000000000000000000000001010000190
70000000000000000340960004520251906042                         1906042000095882020000201AI 05130000000000 17061502161693942-1                     130216000000001435310401090011602160000000000000000000000000000000000000000000000000000000000000000000000000000000014353000000000000000000000000000000000000000000000001435320000000000000          0000000000000000000000000000000000000000000000001010000191
70000000000000000340960004520251906042                         1906042000095882220000201AI 05130000000000 17061502161693943-2                     130216000000006520010401090011602160000000000000000000000000000000000000000000000000000000000000000000000000000000065200000000000000000000000000000000000000000000000006520020000000000000          0000000000000000000000000000000000000000000000001010000192
70000000000000000340960004520251906042                         1906042000095882420000201AI 05130000000000 17061502161693944-1                     130216000000003762810437980011602160000000000000000000000000000000000000000000000000000000000000000000000000000000037628000000000000000000000000000000000000000000000003762820000000000000          0000000000000000000000000000000000000000000000001010000193
70000000000000000340960004520251906042                         1906042000095884320000201AI 05130000000000 17061502161693982-3                     130216000000007810023724690011602160000000000000000000000000000000000000000000000000000000000000000000000000000000078100000000000000000000000000000000000000000000000007810020000000000000          0000000000000000000000000000000000000000000000001010000194
70000000000000000340960004520251906042                         1906042000095885120000201AI 05130000000000 17061502161693984-2                     130216000000004200010401030011602160000000000000000000000000000000000000000000000000000000000000000000000000000000042000000000000000000000000000000000000000000000000004200020000000000000          0000000000000000000000000000000000000000000000001010000195
70000000000000000340960004520251906042                         1906042000095885520000201AI 05130000000000 17061502161693985-3                     130216000000005370010401030011602160000000000000000000000000000000000000000000000000000000000000000000000000000000053700000000000000000000000000000000000000000000000005370020000000000000          0000000000000000000000000000000000000000000000001010000196
70000000000000000340960004520251906042                         1906042000095885920000201AI 05130000000000 17061502161693986-2                     130216000000005260500117272011602160000000000000000000000000000000000000000000000000000000000000000000000000000000052605000000000000000000000000000000000000000000000005260520000000000000          0000000000000000000000000000000000000000000000001008000197
70000000000000000340960004520251906042                         1906042000095886220000201AI 05130000000000 17061502161693988-2                     130216000000006810034174220011602160000000000000000000000000000000000000000000000000000000000000000000000000000000068100000000000000000000000000000000000000000000000006810020000000000000          0000000000000000000000000000000000000000000000001010000198
70000000000000000340960004520251906042                         1906042000095887120000201AI 05130000000000 17061502161693992-2                     130216000000006198610401290011602160000000000000000000000000000000000000000000000000000000000000000000000000000000061986000000000000000000000000000000000000000000000006198620000000000000          0000000000000000000000000000000000000000000000001010000199
70000000000000000340960004520251906042                         1906042000095887420000201AI 05130000000000 17061502161693995-2                     130216000000006078803331830011602160000000000000000000000000000000000000000000000000000000000000000000000000000000060788000000000000000000000000000000000000000000000006078820000000000000          0000000000000000000000000000000000000000000000001010000200
70000000000000000340960004520251906042                         1906042000095887620000201AI 05130000000000 17061502161693996-2                     130216000000003940010401290011602160000000000000000000000000000000000000000000000000000000000000000000000000000000039400000000000000000000000000000000000000000000000003940020000000000000          0000000000000000000000000000000000000000000000001010000201
70000000000000000340960004520251906042                         1906042000095887920000201AI 05130000000000 17061502161693997-2                     130216000000007040010401290011602160000000000000000000000000000000000000000000000000000000000000000000000000000000070400000000000000000000000000000000000000000000000007040020000000000000          0000000000000000000000000000000000000000000000001010000202
70000000000000000340960004520251906042                         1906042000095888920000201AI 05130000000000 17061502161694003-2                     130216000000004730010401100011602160000000000000000000000000000000000000000000000000000000000000000000000000000000047300000000000000000000000000000000000000000000000004730020000000000000          0000000000000000000000000000000000000000000000001010000203
70000000000000000340960004520251906042                         1906042000095891620000201AI 05130000000000 17061502161694228-2                     13021600000000467000013827X011602160000000000000000000000000000000000000000000000000000000000000000000000000000000046700000000000000000000000000000000000000000000000004670020000000000000          0000000000000000000000000000000000000000000000001008000204
70000000000000000340960004520251906042                         1906042000095892020000201AI 05130000000000 17061502161694229-3                     13021600000000610000013827X011602160000000000000000000000000000000000000000000000000000000000000000000000000000000061000000000000000000000000000000000000000000000000006100020000000000000          0000000000000000000000000000000000000000000000001008000205
70000000000000000340960004520251906042                         1906042000095893320000201AI 05130000000000 17061502161694238-3                     130216000000016370000127162011602160000000000000000000000000000000000000000000000000000000000000000000000000000000163700000000000000000000000000000000000000000000000016370020000000000000          0000000000000000000000000000000000000000000000001008000206
70000000000000000340960004520251906042                         1906042000095893820000201AI 05130000000000 17061502161694239-3                     130216000000010350000127162011602160000000000000000000000000000000000000000000000000000000000000000000000000000000103500000000000000000000000000000000000000000000000010350020000000000000          0000000000000000000000000000000000000000000000001008000207
70000000000000000340960004520251906042                         1906042000095894420000201AI 05130000000000 17061502161694242-2                     130216000000007810000100884011602160000000000000000000000000000000000000000000000000000000000000000000000000000000078100000000000000000000000000000000000000000000000007810020000000000000          0000000000000000000000000000000000000000000000001006000208
70000000000000000340960004520251906042                         1906042000095894720000201AI 05130000000000 17061502161694243-2                     130216000000008190000122799011602160000000000000000000000000000000000000000000000000000000000000000000000000000000081900000000000000000000000000000000000000000000000008190020000000000000          0000000000000000000000000000000000000000000000001007000209
70000000000000000340960004520251906042                         1906042000095896120000201AI 05130000000000 17061502161694354-2                     130216000000005390010415360011602160000000000000000000000000000000000000000000000000000000000000000000000000000000053900000000000000000000000000000000000000000000000005390020000000000000          0000000000000000000000000000000000000000000000001010000210
70000000000000000340960004520251906042                         1906042000095896720000201AI 05130000000000 17061502161694356-1                     130216000000005863310416410011602160000000000000000000000000000000000000000000000000000000000000000000000000000000058633000000000000000000000000000000000000000000000005863320000000000000          0000000000000000000000000000000000000000000000001010000211
70000000000000000340960004520251906042                         1906042000095896920000201AI 05130000000000 17061502161694357-2                     130216000000021300023735050011602160000000000000000000000000000000000000000000000000000000000000000000000000000000213000000000000000000000000000000000000000000000000021300020000000000000          0000000000000000000000000000000000000000000000001010000212
70000000000000000340960004520251906042                         1906042000095897320000201AI 05130000000000 17061502161694358-2                     130216000000055370034103520011602160000000000000000000000000000000000000000000000000000000000000000000333030000000520397000000000000000000000000000000000000000000000052039720000000000000          0000000000000000000000000000000000000000000000001010000213
70000000000000000340960004520251906042                         1906042000095898320000201AI 05130000000000 17061502161694363-2                     130216000000006910010406080011602160000000000000000000000000000000000000000000000000000000000000000000000000000000069100000000000000000000000000000000000000000000000006910020000000000000          0000000000000000000000000000000000000000000000001010000214
70000000000000000340960004520251906042                         1906042000095898620000201AI 05130000000000 17061502161694364-2                     130216000000009190010401080011602160000000000000000000000000000000000000000000000000000000000000000000000000000000091900000000000000000000000000000000000000000000000009190020000000000000          0000000000000000000000000000000000000000000000001010000215
70000000000000000340960004520251906042                         1906042000095899120000201AI 05130000000000 17061502161694367-2                     130216000000017080010401330011602160000000000000000000000000000000000000000000000000000000000000000000000000000000170800000000000000000000000000000000000000000000000017080020000000000000          0000000000000000000000000000000000000000000000001010000216
70000000000000000340960004520251906042                         1906042000095899620000101AI 05130000000000 17061502161694557-2                     140216000000011424900108001011602160000000000000000000000000000000000000000000000000000000000000000000000000000000114249000000000000000000000000000000000000000000000011424920000000000000          0000000000000000000000000000000000000000000000001008000217
70000000000000000340960004520251906042                         1906042000095901320000101AI 05130000000000 17061502161694563-2                     140216000000004109523725540011602160000000000000000000000000000000000000000000000000000000000000000000000000000000041095000000000000000000000000000000000000000000000004109520000000000000          0000000000000000000000000000000000000000000000001010000218
70000000000000000340960004520251906042                         1906042000095902120000101AI 05130000000000 17061502161694565-2                     140216000000003826823725540011602160000000000000000000000000000000000000000000000000000000000000000000000000000000038268000000000000000000000000000000000000000000000003826820000000000000          0000000000000000000000000000000000000000000000001010000219
70000000000000000340960004520251906042                         1906042000095902420000101AI 05130000000000 17061502161694567-3                     140216000000007250000113307011602160000000000000000000000000000000000000000000000000000000000000000000000000000000072500000000000000000000000000000000000000000000000007250020000000000000          0000000000000000000000000000000000000000000000001006000220
70000000000000000340960004520251906042                         1906042000095902920000101AI 05130000000000 17061502161694569-2                     140216000000004114210409420011602160000000000000000000000000000000000000000000000000000000000000000000000000000000041142000000000000000000000000000000000000000000000004114220000000000000          0000000000000000000000000000000000000000000000001010000221
70000000000000000340960004520251906042                         1906042000095903220000101AI 05130000000000 17061502161694570-3                     140216000000000961610409420011602160000000000000000000000000000000000000000000000000000000000000000000000000000000009616000000000000000000000000000000000000000000000000961620000000000000          0000000000000000000000000000000000000000000000001010000222
70000000000000000340960004520251906042                         1906042000095903620000101AI 05130000000000 17061502161694573-2                     140216000000006198000114656011602160000000000000000000000000000000000000000000000000000000000000000000000000000000061980000000000000000000000000000000000000000000000006198020000000000000          0000000000000000000000000000000000000000000000001004000223
70000000000000000340960004520251906042                         1906042000095904320000101AI 05130000000000 17061502161694623-3                     140216000000007290010419010011602160000000000000000000000000000000000000000000000000000000000000000000000000000000072900000000000000000000000000000000000000000000000007290020000000000000          0000000000000000000000000000000000000000000000001010000224
70000000000000000340960004520251906042                         1906042000095905420000101AI 05130000000000 17061502161694628-2                     140216000000004150075630960011602160000000000000000000000000000000000000000000000000000000000000000000000000000000041500000000000000000000000000000000000000000000000004150020000000000000          0000000000000000000000000000000000000000000000001010000225
70000000000000000340960004520251906042                         1906042000095906920000101AI 05130000000000 17061502161694663-2                     140216000000007110023734080011602160000000000000000000000000000000000000000000000000000000000000000000000000000000071100000000000000000000000000000000000000000000000007110020000000000000          0000000000000000000000000000000000000000000000001010000226
70000000000000000340960004520251906042                         1906042000095907720000101AI 05130000000000 17061502161694672-1                     140216000000079359123721000011602160000000000000000000000000000000000000000000000000000000000000000000000000000000793591000000000000000000000000000000000000000000000079359120000000000000          0000000000000000000000000000000000000000000000001010000227
70000000000000000340960004520251906042                         1906042000095907920000101AI 05130000000000 17061502161694674-2                     140216000000026170000118732011602160000000000000000000000000000000000000000000000000000000000000000000000000000000261700000000000000000000000000000000000000000000000026170020000000000000          0000000000000000000000000000000000000000000000001006000228
70000000000000000340960004520251906042                         1906042000095909120000101AI 05130000000000 17061502161694682-1                     140216000000006434000178107011602160000000000000000000000000000000000000000000000000000000000000000000000000000000064340000000000000000000000000000000000000000000000006434020000000000000          0000000000000000000000000000000000000000000000001008000229
70000000000000000340960004520251906042                         1906042000095909520000101AI 05130000000000 17061502161694684-1                     140216000000007188100118732011602160000000000000000000000000000000000000000000000000000000000000000000000000000000071881000000000000000000000000000000000000000000000007188120000000000000          0000000000000000000000000000000000000000000000001006000230
70000000000000000340960004520251906042                         1906042000095909720000101AI 05130000000000 17061502161694686-2                     140216000000021030034100960011602160000000000000000000000000000000000000000000000000000000000000000000000000000000210300000000000000000000000000000000000000000000000021030020000000000000          0000000000000000000000000000000000000000000000001010000231
70000000000000000340960004520251906042                         1906042000095911020000101AI 05130000000000 17061502161694690-2                     140216000000005880074890070011602160000000000000000000000000000000000000000000000000000000000000000000000000000000058800000000000000000000000000000000000000000000000005880020000000000000          0000000000000000000000000000000000000000000000001010000232
70000000000000000340960004520251906042                         1906042000095911320000101AI 05130000000000 17061502161694691-2                     140216000000006850074809020011602160000000000000000000000000000000000000000000000000000000000000000000000000000000068500000000000000000000000000000000000000000000000006850020000000000000          0000000000000000000000000000000000000000000000001010000233
70000000000000000340960004520251906042                         1906042000095911820000101AI 05130000000000 17061502161694716-2                     140216000000011250000104847011602160000000000000000000000000000000000000000000000000000000000000000000000000000000112500000000000000000000000000000000000000000000000011250020000000000000          0000000000000000000000000000000000000000000000001006000234
70000000000000000340960004520251906042                         1906042000095912320000001AI 05130000000000 17061502161694769-1                     150216000000006540710405630011602160000000000000000000000000000000000000000000000000000000000000000000000000000000065407000000000000000000000000000000000000000000000006540720000000000000          0000000000000000000000000000000000000000000000001010000235
70000000000000000340960004520251906042                         1906042000095912820000001AI 05130000000000 17061502161694772-3                     150216000000006730074890240011602160000000000000000000000000000000000000000000000000000000000000000000000000000000067300000000000000000000000000000000000000000000000006730020000000000000          0000000000000000000000000000000000000000000000001010000236
70000000000000000340960004520251906042                         1906042000095913120000101AI 05130000000000 17061502161694979-1                     160216000000010565334134950011602160000000000000000000000000000000000000000000000000000000000000000000000000000000105653000000000000000000000000000000000000000000000010565320000000000000          0000000000000000000000000000000000000000000000001010000237
70000000000000000340960004520251906042                         1906042000095913720000001AI 05130000000000 17061502161695088-1                     150216000000005581200128487011602160000000000000000000000000000000000000000000000000000000000000000000000000000000055812000000000000000000000000000000000000000000000005581220000000000000          0000000000000000000000000000000000000000000000001006000238
70000000000000000340960004520251906042                         1906042000095913920000001AI 05130000000000 17061502161695089-2                     150216000000011580074890550011602160000000000000000000000000000000000000000000000000000000000000000000000000000000115800000000000000000000000000000000000000000000000011580020000000000000          0000000000000000000000000000000000000000000000001010000239
70000000000000000340960004520251906042                         1906042000095914220000001AI 05130000000000 17061502161695091-2                     150216000000005410010422730011602160000000000000000000000000000000000000000000000000000000000000000000000000000000054100000000000000000000000000000000000000000000000005410020000000000000          0000000000000000000000000000000000000000000000001010000240
70000000000000000340960004520251906042                         1906042000095914520000001AI 05130000000000 17061502161695092-2                     150216000000012320075644470011602160000000000000000000000000000000000000000000000000000000000000000000000000000000123200000000000000000000000000000000000000000000000012320020000000000000          0000000000000000000000000000000000000000000000001010000241
70000000000000000340960004520251906042                         1906042000095914820000001AI 05130000000000 17061502161695094-2                     150216000000010820000131534011602160000000000000000000000000000000000000000000000000000000000000000000000000000000108200000000000000000000000000000000000000000000000010820020000000000000          0000000000000000000000000000000000000000000000001001000242
70000000000000000340960004520251906042                         1906042000095915120000001AI 05130000000000 17061502161695095-2                     150216000000009990074890560011602160000000000000000000000000000000000000000000000000000000000000000000000000000000099900000000000000000000000000000000000000000000000009990020000000000000          0000000000000000000000000000000000000000000000001010000243
70000000000000000340960004520251906042                         1906042000095915520000001AI 05130000000000 17061502161695098-2                     150216000000008390023711010011602160000000000000000000000000000000000000000000000000000000000000000000000000000000083900000000000000000000000000000000000000000000000008390020000000000000          0000000000000000000000000000000000000000000000001010000244
70000000000000000340960004520251906042                         1906042000095916520000001AI 05130000000000 17061502161695102-2                     150216000000006830000137230011602160000000000000000000000000000000000000000000000000000000000000000000000000000000068300000000000000000000000000000000000000000000000006830020000000000000          0000000000000000000000000000000000000000000000001006000245
70000000000000000340960004520251906042                         1906042000095917020000001AI 05130000000000 17061502161695104-2                     150216000000005140000107404011602160000000000000000000000000000000000000000000000000000000000000000000000000000000051400000000000000000000000000000000000000000000000005140020000000000000          0000000000000000000000000000000000000000000000001001000246
70000000000000000340960004520251906042                         1906042000095917620000001AI 05130000000000 17061502161695107-2                     150216000000008570000109032011602160000000000000000000000000000000000000000000000000000000000000000000000000000000085700000000000000000000000000000000000000000000000008570020000000000000          0000000000000000000000000000000000000000000000001008000247
70000000000000000340960004520251906042                         1906042000095918820000001AI 05130000000000 17061502161695116-2                     150216000000005020010407870011602160000000000000000000000000000000000000000000000000000000000000000000000000000000050200000000000000000000000000000000000000000000000005020020000000000000          0000000000000000000000000000000000000000000000001010000248
70000000000000000340960004520251906042                         1906042000095919120000001AI 05130000000000 17061502161695118-2                     150216000000005730000109547011602160000000000000000000000000000000000000000000000000000000000000000000000000000000057300000000000000000000000000000000000000000000000005730020000000000000          0000000000000000000000000000000000000000000000001006000249
