01REMESSA01COBRANCA       12123000232322000000Anteros Tecnologia Ltda       000               0107160000001                                                                                                                                                                                                                                                                                               000001
70216611534000194121230002323220123456                         000000050094014480000   0   00000000001    0101100000001 10051600000012347340000000 02N100516000000000000010001005160000000000000000000000100000000000010000217440867000160Empresa Teste Ltda                      Av. Presidente Vargas,140                           87260000Araruna        PR                                        5  000002
70216611534000194121230002323220123456                         000000050094014490000   0   00000000001    0101100000001 10051600000052347140000000 02N100516000000000000010001005160000000000000000000000100000000000010000292584124000180Empresa XYZ Ltda                        Rua do Mercado,140                                  87250000Peabiru        PR                                        5  000003
70216611534000194121230002323220123456                         000000050094014400000   0   00000000001    0101100000001 10051600000061247240000000 02N100516000000000000010001005160000000000000000000000100000000000010000254463711000121Construtora ABC Ltda                    Av. Manoel Mendes de Camargo,340                    87300000Campo Mourão   PR                                        5  000004
70216611534000194121230002323220123456                         000000050094014470000   0   00000000001    0101100000001 10051600000000234540000000 02N100516000000000000010001005160000000000000000000000100000000000010000215222634000166Imobiliaria S/C                         Av. Presidente Vargas,140                           87260000Araruna        PR                                        5  000005
9                                                                                                                                                                                                                                                                                                                                                                                                         000006
